:1000000000100020D10800000709000009090000C5
:100010000B0900000D0900000F0900000509000090
:10002000050900000509000005090000110900008C
:100030001309000005090000150900001709000058
:10004000190900001B090000950400005504000078
:1000500021090000230900002509000027090000EC
:10006000290900002B0900002D0900002F090000BC
:10007000310900003309000035090000370900008C
:10008000390900003B0900003D0900003F0900005C
:10009000410900004309000045090000000000007C
:1000A0000000000000000000000000000000000050
:1000B0000000000000000000000000000000000040
:1000C0000000000000000000000000000000000030
:1000D0000000000000000000000000000000000020
:1000E0000000000000000000000000000000000010
:1000F0000000000000000000000000000000000000
:1001000010B5054C237833B9044810B10448AFF357
:1001100000800121217010BD780300200000000044
:10012000380B000008B5064B1BB106480649AFF373
:1001300000800648016811B1054A02B1904708BD28
:1001400000000000380B00007C0300207803002032
:1001500000000000154B002B08BF134B9D46A3F574
:10016000803A00218B460F461348144A121A00F0B9
:1001700049FC0F4B002B00D098470E4B002B00D0B2
:1001800098470020002104460D4600200C4900221B
:10019000002300F0DBFB00F00FFC2046294600F0B6
:1001A0004FF800F0DDFB00BF000008000010002049
:1001B000000000000000000078030020A6030020DB
:1001C0008D0900000D4B4FF480420D4810B59A6523
:1001D00041681C4611F0100F02D00A4800F030FAB6
:1001E000094800F02DFA094800F02AFA08484FF4AF
:1001F00080430122E365426210BD00BF0060004001
:1002000000A00C40500A00007A0A0000910A000089
:1002100000600C40074A38B54FF48043936514469C
:100220001D4608B1044800E0044800F009FAE565FD
:1002300038BD00BF00600040090B00001B0B000030
:1002400038B500F09FF800F0C1F800F087F800F032
:10025000D5F800F0DDF800F0E5F843F6070318786C
:1002600028B900F013FA012801D100F047F8FFF790
:10027000A9FF00F085FA16490A78AA2AF9D14C7824
:10028000AA2CF6D1CD787F2DF3D10B79012B09D093
:1002900006D3022B0BD0142BEBD100F04BF9E8E77F
:1002A00000F0C8FA00F0F2F9FFF7B4FFE1E700F060
:1002B000EDF920B100F010FA00F020F8D9E7054C74
:1002C0004FF48045A565044800F0BAF9E565D0E72C
:1002D00098030020006000401B0B000080B483B036
:1002E00000AF7860396080F3088880F309888F4612
:1002F00007F10C07BD4680BC704700BF80B584B0D5
:1003000000AF4FF48043FB604FF46D43CEF2000327
:10031000FA689A60FB681B68BB60FB685B687B607F
:10032000B8687968FFF7DAFF07F11007BD4680BDAE
:10033000044B81EA102133F8112082EA002080B2B8
:10034000704700BF00000020034B1A6922F0040030
:10035000186130BF704700BF00ED00E0084B4FF45C
:10036000407240F605405A61D860196841F6F9704C
:1003700041F0600240F203311A6098645965704799
:1003800000C000400F4B104A1A60186A40F0040188
:1003900019621846C26A0B4B1207FBD54FF48071E5
:1003A000022054229960586205215A640420B32225
:1003B0009962186441F671315A61A3F50043D9631B
:1003C000704700BF00800C402C060C000A4B4FF019
:1003D00080621A654FF480404FF482014FF400525E
:1003E000D865C3F89810C3F8A020D3F8200140F0D6
:1003F0000401C3F82011704700600040034B40F631
:100400000C2200201A605860704700BF008008402E
:10041000034B40224FF470701A60D861704700BFE0
:100420000000014000F000B8084B08220848C3F85B
:1004300080211A60C16C41F00402C264012100F500
:1004400080400422C1601A60704700BF00E100E0F4
:1004500000C0004010B50C4CB4F900300BB900F0EE
:10046000CFF80A482288C069094B11B258540132AA
:1004700090B29B7801B29942208003D1BDE8104030
:1004800000F0C4B810BD00BF9603002000C00040BB
:100490009803002008B500F0C1F800F0B7F8034B4E
:1004A000034900220A201A80887008BD96030020A4
:1004B0009803002030B5124B124AD46914F0080F8B
:1004C0000DD153B1013BF7E70823D3600C4B0D4A24
:1004D000D06910F001010DD183B9FD210EE0002B90
:1004E000FBD000238B42EFDA50F82340054D013357
:1004F000AC61F7E7002BF0D0013BE8E748B230BD34
:100500008096980000000C40094B01221861DA60C7
:10051000D96911F0060008D04A0705D411F0020F7E
:100520000CBF0020FE2000E0FF2040B2704700BF5B
:1005300000000C4030B51B4A85B00024AA230720D8
:100540007F214FF48045ADF806408DF808308DF8D6
:1005500009308DF80A008DF80B408DF80C10956568
:1005600002ABE55CBDF80600294680B2FFF7E0FE6D
:100570000134ADF80600284600F056F8052CEFD1FE
:10058000BDF80610BDF80620C8B294B200F04CF8D1
:10059000200A00F049F8034B4FF48040D86505B0BD
:1005A00030BD00BF0060004038B5084B4FF48042BA
:1005B0009A6500241D460648005D013400F034F8B9
:1005C000052CF8D14FF48041E96538BD006000404A
:1005D0000002002038B5084B4FF480429A65002491
:1005E0001D460648005D013400F01EF8052CF8D1C8
:1005F0004FF48041E96538BD0060004005020020ED
:10060000014B01225A60704700000140024B022258
:1006100000205A605862704700000140014B0122DF
:100620009A61704700000140044B1A695206FBD5DD
:10063000586318698106FCD5704700BF00C00040B0
:1006400010B5441E14F8010F10B1FFF7EDFFF9E7E4
:1006500010BD000018B9034B9968CB07FBD4024AC0
:10066000106070470080084000001043064B1A6875
:10067000D00708D59868810705D49968CA07FCD4C3
:10068000014B01225A6070470080084013B50023D7
:10069000ADF806304FF480440D48A4F5804201685F
:1006A0000B689A4209D2BDF8063014F8011B98B2C3
:1006B000FFF73EFEADF80600EEE70648BDF806205F
:1006C000036891B21A88511A484248411CBD00BFC4
:1006D0000C02002010020020154B13B51968154CB0
:1006E0000A884FF460508DF800200B88124A190ACE
:1006F000136820608DF8011019688DF802101A68CF
:10070000110A8DF803105A8801218DF80420DB7836
:1007100000228DF806108DF807208DF8053000F0C6
:100720008FF920686946082200F082F91CBD00BFDD
:1007300010020020140200200C02002010B50D4B06
:1007400003F10802597903F8011F9342FAD10A4CC8
:100750002068B0F5804F01D0C30501D100F070F9D9
:1007600020680649082200F063F9206808302060FC
:1007700010BD00BF97030020140200209803002042
:10078000084B094800220A2110B51A8081701C46C6
:10079000054BB4F9002099788A4202D0FFF7D4FDC6
:1007A000F6E710BD960300209803002008B5FFF778
:1007B000E7FF044B5A791879034B40EA022119806C
:1007C00008BD00BF980300209403002013B5002447
:1007D000ADF80440ADF80640154B9A78901E84425F
:1007E00009DABDF8041088B2195DFFF7A1FD0134E4
:1007F000ADF80400F0E7597B1B7BADF80610BDF89F
:100800000620100200F47F41ADF80610BDF8062066
:1008100090B240EA0301ADF80610BDF80420BDF81F
:10082000063090B299B2421A504250411CBD00BFEE
:1008300098030020224B10B54FF4804201201A602B
:10084000FFF708FFFFF7B2FFFFF710FFFFF7ACFE5F
:1008500000241C4801888C4211DAFFF791FFFFF752
:1008600005FFFFF7B3FF30B1FFF768FFFFF7FEFEAC
:10087000FFF79AFE01E0FFF7ADFE0134E9E7FFF76D
:100880007FFFFFF7F3FEFFF7A1FFA0B10C4C0E4B6B
:100890004FF46052226003F10800597903F8011FF8
:1008A0008342FAD14FF4605000F0CAF8206807493B
:1008B000082200F0BDF80020BDE81040FFF7CABED6
:1008C00014020020940300209703002098030020C6
:1008D000074880470749084A084B9B1A40F30580A0
:1008E000043BC858D0503FF7FBAF05480047000015
:1008F00049090000440B000000000020780300209C
:1009000055010000FEE7FEE7FEE7FEE7FEE7FEE733
:10091000FEE7FEE7FEE7FEE7FEE7FEE7FEE7FEE7AF
:10092000FEE7FEE7FEE7FEE7FEE7FEE7FEE7FEE79F
:10093000FEE7FEE7FEE7FEE7FEE7FEE7FEE7FEE78F
:10094000FEE7FEE7FEE700BF7047000010B5034C6E
:1009500014B1AFF3008010BD204610BD00000000B0
:1009600008B5084B04461BB10021AFF3008001E03D
:1009700000F00CF804480068816A01B188472046FD
:1009800000F048F800000000340B000070B5084B80
:10099000084C0025E01A841003EB8406043D1CB1CA
:1009A00072599047013CF9E7BDE8704000F03AB851
:1009B000740300207803002038B50E4D0E4B002440
:1009C000E81A8510AC4205D00B4951F82420904715
:1009D0000134F7E700F020F80849094A541AA51035
:1009E0000024AC4205D0054B53F824008047013465
:1009F000F7E738BD7003002070030020700300206B
:100A00007403002082180346934202D003F8011BAE
:100A1000FAE77047FEE700BFF8B500BFF8BC08BCB6
:100A20009E467047F8B500BFF8BC08BC9E467047AC
:100A300001B40248844601BC604700BFED020020BB
:100A400001B40248844601BC604700BF7D0200201B
:100A50005741544348444F47207472696767657231
:100A6000656421204572726F72206F6E207472610E
:100A70006E736D69740D0A0D0A005349524B412083
:100A8000426F6F746C6F6164657220312E300D0A95
:100A900000506C6561736520656E7465722061201D
:100AA000636F6D6D616E643A200D0A2030783030CE
:100AB000202D2055706C6F6164204669726D7761DE
:100AC00072650D0A2030783031202D20566572690C
:100AD0006679204669726D776172650D0A203078FB
:100AE0003032202D20426F6F74204669726D77611D
:100AF00072650D0A2030783134202D2053656E64E4
:100B00002048656C6C6F0D0A004669726D776172E2
:100B1000652056414C4944210A0D004669726D77A3
:100B200061726520494E56414C494421210A0D000D
:0C0B30004300000018020020000000003C
:080B3C0018F6FF7F0100000024
:100B4400000005800F800A001B801E001400118025
:100B5400338036003C00398028002D802780220015
:100B6400638066006C00698078007D807780720005
:100B7400500055805F805A004B804E0044004180F5
:100B8400C380C600CC00C980D800DD80D780D200E5
:100B9400F000F580FF80FA00EB80EE00E400E180D5
:100BA400A000A580AF80AA00BB80BE00B400B180C5
:100BB400938096009C00998088008D8087808200B5
:100BC400838186018C01898198019D81978192019D
:100BD400B001B581BF81BA01AB81AE01A401A1818D
:100BE400E001E581EF81EA01FB81FE01F401F1817D
:100BF400D381D601DC01D981C801CD81C781C2016D
:100C0400400145814F814A015B815E01540151815C
:100C1400738176017C01798168016D81678162014C
:100C2400238126012C01298138013D81378132013C
:100C3400100115811F811A010B810E01040101812C
:100C4400038306030C03098318031D83178312030C
:100C5400300335833F833A032B832E0324032183FC
:100C6400600365836F836A037B837E0374037183EC
:100C7400538356035C03598348034D8347834203DC
:100C8400C003C583CF83CA03DB83DE03D403D183CC
:100C9400F383F603FC03F983E803ED83E783E203BC
:100CA400A383A603AC03A983B803BD83B783B203AC
:100CB400900395839F839A038B838E03840381839C
:100CC400800285828F828A029B829E029402918294
:100CD400B382B602BC02B982A802AD82A782A20284
:100CE400E382E602EC02E982F802FD82F782F20274
:100CF400D002D582DF82DA02CB82CE02C402C18264
:100D0400438246024C02498258025D825782520253
:100D1400700275827F827A026B826E026402618243
:100D2400200225822F822A023B823E023402318233
:100D3400138216021C02198208020D820782020223
:100D4400AAAA050001AAAA050000000002380000B2
:100D54000038000000400000000000000000000017
:100D6400000000000000000000000000000000007F
:100D74000000000000000000300B00000000000034
:100D8400000000000000000000000000000000005F
:100D9400000000000000000000000000000000004F
:100DA400000000000000000000000000000000003F
:100DB400000000000000000000000000194B9A68C9
:100DC40042F00101996018610120D860DA69510785
:100DD40005D59A68FF2022F0010199601FE0D969C6
:100DE4008A0705D5996821F001009860FE2016E075
:100DF40002200D4AD8600B4BD96911F00100194645
:100E040002D012B1013AF6E72AB98B6823F0010047
:100E14008860FD2003E09A6822F00101996040B2E5
:100E2400704700BF00000C4080969800174B2DE9D6
:100E3400F04180469868971040F001049C600E468B
:100E44000024BC4219DA08EB8405284600F028F88F
:100E5400A0B9ED05E90DC1F500723B1B95089D4253
:100E6400A8BF1D466419002DEBD03046012100F0C7
:100E74000FF818B90436013DF5E70020034940B2E4
:100E84008A6822F001038B60BDE8F08100000C4009
:100E940001B40248844601BC604700BFB5040000A9
:100EA40001B40248844601BC604700BF0905000044
:080EB40025010000010100000E
:04000003000008D120
:00000001FF
