:1000000000100020AD120000E3120000E512000015
:10001000E7120000E9120000EB120000E1120000FC
:10002000E1120000E1120000E1120000ED120000F8
:10003000EF120000E1120000F1120000F3120000C4
:10004000F5120000F7120000890700001D070000EC
:10005000FD120000FF120000011300000313000056
:100060000513000007130000091300000B13000024
:100070000D1300000F1300001113000013130000F4
:100080001513000017130000191300001B130000C4
:100090001D1300001F1300002113000000000000CA
:1000A0000000000000000000000000000000000050
:1000B0000000000000000000000000000000000040
:1000C0000000000000000000000000000000000030
:1000D0000000000000000000000000000000000020
:1000E0000000000000000000000000000000000010
:1000F0000000000000000000000000000000000000
:1001000010B5054C237833B9044810B10448AFF357
:1001100000800121217010BD980200200000000025
:100120000415000008B5064B1BB106480649AFF39D
:1001300000800648016811B1054A02B1904708BD28
:1001400000000000041500009C020020980200201E
:1001500000000000154B002B08BF134B9D46A3F574
:10016000803A00218B460F461348144A121A01F0B8
:100170003BF90F4B002B00D098470E4B002B00D0C3
:1001800098470020002104460D4600200C4900221B
:10019000002301F0CDF801F001F92046294600F0D6
:1001A00073F801F0CFF800BF000008000010002035
:1001B000000000000000000098020020CA02002099
:1001C0007113000080B400AFBD4680BC704700BF13
:1001D00080B500AF4FF4C043C4F200034FF4804237
:1001E0009A654FF42043C4F20C035B6803F01003DC
:1001F000002B05D041F21440C0F2000000F084FD55
:1002000041F24040C0F2000000F07EFD41F2584053
:10021000C0F2000000F078FD4FF4C043C4F20003C8
:100220004FF48042DA654FF4C043C4F20C034FF040
:1002300001025A6280BD00BF80B582B000AF0346A4
:10024000FB714FF4C043C4F200034FF480429A653F
:10025000FB79002B06D041F2D040C0F2000000F044
:1002600053FD05E041F2E440C0F2000000F04CFD17
:100270004FF4C043C4F200034FF48042DA6507F143
:100280000807BD4680BD00BF80B582B000AF43F611
:100290000D037B60FFF796FF00F038F900F084F95A
:1002A00000F012F900F0B2F900F0C4F900F0DEF944
:1002B0007B681B78002B06D100F038FE0346012B2B
:1002C00001D100F097F8FFF783FF00E000BF00F0D6
:1002D00079FF40F2BC23C2F200031B78DBB2AA2BE9
:1002E000F4D140F2BC23C2F200035B78DBB2AA2B4C
:1002F000ECD140F2BC23C2F20003DB78DBB27F2BEF
:10030000E4D140F2BC23C2F200031B79DBB2142B10
:100310005ED801A252F823F06D0300007F030000B5
:100320008D030000D1030000D1030000D1030000C1
:10033000D1030000D1030000D1030000D10300006D
:10034000D1030000D1030000D1030000D10300005D
:10035000D1030000D1030000D1030000D10300004D
:10036000D1030000D1030000CB03000000F04CFDDE
:1003700000F0DCFD03461846FFF75EFF29E000F0C1
:10038000D5FD03461846FFF757FF22E000F0CEFDEB
:100390000346002B04D000F005FE00F02BF818E017
:1003A0004FF4C043C4F200034FF480429A6541F217
:1003B000E440C0F2000000F0A7FC4FF4C043C4F2D8
:1003C00000034FF48042DA6503E000F0A1FB00E097
:1003D00000BF7BE780B483B000AF7860396080F302
:1003E000088880F309888F4607F10C07BD4680BC5A
:1003F000704700BF80B584B000AF4FF48043FB600E
:100400004FF46D43CEF20003FA689A60FB681B68F4
:10041000BB60FB685B687B60B8687968FFF7DAFFF0
:1004200007F11007BD4680BD80B483B000AF02461F
:100430000B46FA807B71FB884FEA03239AB2FB8854
:100440004FEA13239BB219467B79594040F20003CF
:10045000C2F2000333F811309BB253409BB29BB2FF
:10046000184607F10C07BD4680BC704780B400AF4A
:100470004FF46D43CEF200034FF46D42CEF2000212
:10048000126922F004021A6130BFBD4680BC704779
:1004900080B483B000AF0346FB714FF46143CEF2EA
:1004A000000397F907204FEA5212F97901F01F0172
:1004B0004FF0010000FA01F143F8221007F10C0798
:1004C000BD4680BC704700BF80B400AF4FF44043CE
:1004D000C4F200034FF480725A614FF44043C4F2F7
:1004E000000340F60542DA604FF44043C4F20003D3
:1004F00041F6F9729A644FF44043C4F2000340F2AB
:1005000003325A65BD4680BC704700BF80B400AF5F
:100510004FF40043C4F20C0340F22C62C0F20C0210
:100520001A604FF40043C4F20C034FF40042C4F2CB
:100530000C02126A42F004021A6200BF4FF4004338
:10054000C4F20C03DB6A03F00803002BF6D04FF46F
:100550000043C4F20C034FF480729A604FF40043DE
:10056000C4F20C034FF002025A624FF40043C4F28B
:100570000C034FF054025A644FF40043C4F20C03CE
:100580004FF005029A624FF40043C4F20C034FF09F
:1005900004021A644FF40043C4F20C034FF0B30298
:1005A0005A61BD4680BC704780B400AF4FF4C04371
:1005B000C4F200034FF080621A654FF4C043C4F2E6
:1005C00000034FF48042DA654FF4C043C4F20003E5
:1005D0004FF48202C3F898204FF4C043C4F20003E2
:1005E0004FF40052C3F8A0204FF4C043C4F20003FC
:1005F0004FF4C042C4F20002D2F8202142F00402BB
:10060000C3F82021BD4680BC704700BF80B400AF56
:100610004FF40043C4F2080340F60C221A604FF472
:100620000043C4F208034FF000025A60BD4680BC8C
:10063000704700BF80B500AF4FF00003C4F2010364
:100640004FF040021A604FF00003C4F201034FF470
:10065000C852DA614FF00003C4F201034FF0010207
:10066000DA604FF00200FFF713FF80BD80B500AFE6
:1006700000F03CF880BD00BF80B483B000AF0346FB
:10068000FB714FF46143CEF2000397F907204FEA64
:100690005212F97901F01F014FF0010000FA01F147
:1006A00043F8221007F10C07BD4680BC704700BF1D
:1006B00080B483B000AF0346FB714FF46143CEF2C8
:1006C000000397F907204FEA5212F97901F01F0150
:1006D0004FF0010000FA01F102F1600243F822102C
:1006E00007F10C07BD4680BC704700BF80B500AF66
:1006F0004FF00300FFF7DCFF4FF00300FFF7BCFFF4
:100700004FF44043C4F200034FF44042C4F20002ED
:10071000D26C42F00402DA6480BD00BF80B500AF45
:1007200040F2B823C2F200031B88002B01D100F075
:100730009BFA40F2B823C2F200031A8811B24FF4B8
:100740004043C4F20003DB69D8B240F2BC23C2F2DA
:1007500000035854134603F101039AB240F2B82340
:10076000C2F200031A8040F2B823C2F200031B88D1
:100770001AB240F2BC23C2F200039B789A4201D124
:1007800000F07EFA80BD00BF80B500AF00F08CFAAB
:1007900000F076FA40F2B823C2F200034FF00002F4
:1007A0001A8040F2BC23C2F200034FF00A029A7092
:1007B00080BD00BF80B485B000AF786049F280632F
:1007C000C0F29803FB604FF00003C4F20C034FF03B
:1007D0000002C4F20C02926842F001029A604FF0EB
:1007E0000003C4F20C037A681A614FF00003C4F2EC
:1007F0000C034FF00102DA604FF00003C4F20C0367
:10080000DB6903F00403002B0ED04FF00003C4F2A9
:100810000C034FF00002C4F20C02926822F00102B5
:100820009A604FF0FF034FE04FF00003C4F20C0357
:10083000DB6903F00203002B0ED04FF00003C4F27B
:100840000C034FF00002C4F20C02926822F0010285
:100850009A604FF0FE0337E04FF00003C4F20C0340
:100860004FF00202DA6003E0FB6803F1FF33FB6044
:100870004FF00003C4F20C03DB6903F00103002B0B
:1008800002D0FB68002BEFD1FB68002B0ED14FF09C
:100890000003C4F20C034FF00002C4F20C02926891
:1008A00022F001029A604FF0FD030DE04FF00003CB
:1008B000C4F20C034FF00002C4F20C02926822F062
:1008C00001029A604FF000035BB2184607F114076B
:1008D000BD4680BC704700BF80B58AB000AFF860ED
:1008E000B9607A604FF00003FB764FF00003C4F26A
:1008F0000C034FF00002C4F20C02926842F00102B5
:100900009A607B684FEAA3037B61BB68FB614FF091
:1009100000037B6240E07B6A4FEA8303FA68D318E6
:10092000184600F0BFF80346FB7697F91B30002B02
:1009300037D17B6A4FEA8303FA68D3184FEAC3536F
:100940004FEAD353C3F500734FEA93033B627A69CE
:100950007B6AD21A3B6A9A4203DA7A697B6AD31AB3
:100960003B627A6A3B6AD3187B6212E0F8694FF007
:10097000010100F02DF80346FB7697F91B30002BA0
:1009800011D1FB6903F10403FB613B6A03F1FF33FF
:100990003B623B6A002BE9D17A6A7B699A42BADBF7
:1009A00002E000BF00E000BF4FF00003C4F20C0300
:1009B0004FF00002C4F20C02926822F001029A6029
:1009C000FB7E5BB2184607F12807BD4680BD00BF1D
:1009D00080B485B000AF7860396049F28063C0F2BE
:1009E0009803FB6049F28063C0F29803FB6003E068
:1009F000FB6803F1FF33FB604FF00003C4F20C030C
:100A0000DB6903F00803002B02D1FB68002BEFD158
:100A1000FB68002B02D14FF0FD033BE04FF00003D9
:100A2000BB600EE04FF00003C4F20C037A6812685A
:100A30009A61BB6803F10103BB607B6803F10403A7
:100A40007B60BA683B689A42ECDB4FF00003C4F26B
:100A50000C034FF00802DA6049F28063C0F2980399
:100A6000FB6003E0FB6803F1FF33FB604FF0000322
:100A7000C4F20C03DB6903F00103002B02D0FB6816
:100A8000002BEFD1FB68002B02D14FF0FD0301E0FA
:100A90004FF000035BB2184607F11407BD4680BC57
:100AA000704700BF80B485B000AF78604FF000039E
:100AB000C4F20C037A681A614FF00003C4F20C030D
:100AC0004FF00102DA604FF00003C4F20C03DB695F
:100AD000FB60FB6803F00603002B0FD0FB6803F0FC
:100AE0000403002B02D04FF0FF0309E0FB6803F082
:100AF0000203002B02D04FF0FE0301E04FF0000391
:100B00005BB2184607F11407BD4680BC704700BFB2
:100B100080B584B000AF4FF000037B814FF0AA0393
:100B20003B704FF0AA037B704FF00703BB704FF090
:100B30000003FB704FF07F033B714FF4C043C4F2DE
:100B400000034FF480429A654FF00003FB6016E00B
:100B50007B899AB23946FB68CB181B781046194638
:100B6000FFF762FC03467B813A46FB68D3181B788B
:100B7000184600F0A5F8FB6803F10103FB60FB6871
:100B8000042BE5DD7B899BB2DBB27B717B899BB259
:100B90004FEA13239BB2DBB2BB717B79184600F09E
:100BA0008FF8BB79184600F08BF84FF4C043C4F2BD
:100BB00000034FF48042DA6507F11007BD4680BD9F
:100BC00080B582B000AF4FF4C043C4F200034FF4CD
:100BD00080429A654FF000037B600DE040F20023F5
:100BE000C2F200037A689B181B78184600F068F878
:100BF0007B6803F101037B607B68042BEEDD4FF41F
:100C0000C043C4F200034FF48042DA6507F10807DD
:100C1000BD4680BD80B582B000AF4FF4C043C4F282
:100C200000034FF480429A654FF000037B600DE0B3
:100C300040F20823C2F200037A689B181B7818461A
:100C400000F03EF87B6803F101037B607B68042BB6
:100C5000EEDD4FF4C043C4F200034FF48042DA6586
:100C600007F10807BD4680BD80B400AF4FF0000318
:100C7000C4F201034FF001025A60BD4680BC7047C8
:100C800080B400AF4FF00003C4F201034FF0020242
:100C90005A604FF00003C4F201034FF000025A62A1
:100CA000BD4680BC704700BF80B400AF4FF000036A
:100CB000C4F201034FF001029A61BD4680BC704747
:100CC00080B483B000AF0346FB7100BF4FF44043D4
:100CD000C4F200031B6903F04003002BF6D04FF46D
:100CE0004043C4F20003FA795A6300BF4FF4404313
:100CF000C4F200031B6903F02003002BF6D007F1B8
:100D00000C07BD4680BC704780B582B000AF7860EC
:100D10007B681B78002B09D07B681B787A6802F10E
:100D200001027A601846FFF7CBFFF1E700BF07F139
:100D30000807BD4680BD00BF80B582B000AF034646
:100D4000FB71FB7983F00103DBB2002B09D000BFFC
:100D50004FF40043C4F208039B6803F00103002B27
:100D6000F6D1FB794FF40040C4F208004FF00001C7
:100D70001A4600F031F807F10807BD4680BD00BFF4
:100D800080B400AF4FF40043C4F208031B6803F0C3
:100D90000103002B1AD04FF40043C4F208039B68F0
:100DA00003F00203002B13D100BF4FF40043C4F241
:100DB00008039B6803F00103002BF6D14FF40043B6
:100DC000C4F208034FF001025A6002E000BF00E0E5
:100DD00000BFBD4680BC704780B487B000AFF860EC
:100DE000B9607A60FB6803F104734FEAC302BB6821
:100DF000D3184FEA83037B617B697A681A6007F135
:100E00001C07BD4680BC704780B582B000AF40F281
:100E10001023C2F200034FF480421A604FF0010029
:100E2000FFF78AFF00F048F9FFF7AAFFFFF7C8FEB7
:100E30004FF000037B6015E000F0C4F9FFF7A0FF5E
:100E400000F0E2F90346002B06D000F065F9FFF749
:100E500097FFFFF7B5FE01E0FFF7DCFE7B6803F1CB
:100E600001037B6040F2B423C2F200031B881A46E0
:100E70007B689A42E0DC00F0A5F9FFF781FF00F003
:100E8000C3F90346002B48D040F21023C2F20003FE
:100E90004FF460521A6040F21423C2F200031B6840
:100EA0001A7840F2BC23C2F200031A7040F21823F1
:100EB000C2F200031B681A7840F2BC23C2F200039E
:100EC0005A7040F21C23C2F200031B681A7840F2E9
:100ED000BC23C2F200039A7040F22023C2F2000346
:100EE0001B681A7840F2BC23C2F20003DA7040F2A9
:100EF0001023C2F200031B681846FFF75BFC40F2A8
:100F00001023C2F200031B68184640F2BC21C2F253
:100F100000014FF00C02FFF7DFFC4FF00000FFF77D
:100F20000BFF07F10807BD4680BD00BF80B584B048
:100F300000AF4FF48043FB604FF00003FB804FF0A5
:100F40000003BB6011E0FB889AB2FB681B78104677
:100F50001946FFF769FA0346FB80FB6803F10103BA
:100F6000FB60BB6803F10103BB6040F22823C2F2BF
:100F700000031B681A68BB689A42E4D840F2242335
:100F8000C2F200031B681A88FB889BB29A4202D106
:100F90004FF0010301E04FF00003184607F110077E
:100FA000BD4680BD80B584B000AF40F21023C2F2D0
:100FB00000034FF460521A6040F21423C2F200039F
:100FC0001B681B783B7040F21823C2F200031B68B9
:100FD0001B787B7040F21C23C2F200031B681B7855
:100FE000BB7040F22023C2F200031B681B78FB7029
:100FF00040F22423C2F200031B681B88DBB23B7162
:1010000040F22423C2F200031B681B884FEA13231B
:101010009BB2DBB27B7140F22823C2F200031B6853
:101020001B68DBB2BB7140F22823C2F200031B68CD
:101030001B684FEA1323DBB2FB7140F22823C2F294
:1010400000031B681B684FEA1343DBB23B7240F29C
:101050002823C2F200031B681B684FEA1363DBB24C
:101060007B724FF0FF03BB724FF0FF03FB724FF038
:1010700001033B734FF000037B734FF00003BB731E
:101080004FF00003FB7340F21023C2F200031B6811
:101090001846FFF78FFB40F21023C2F200031B68D3
:1010A0001A463B46104619464FF01002FFF714FC53
:1010B00007F11007BD4680BD80B500AF00F082F893
:1010C00040F2BC23C2F200035B791A4640F2B4231B
:1010D000C2F200031A8040F2B423C2F200031B885C
:1010E0004FEA03239AB240F2B423C2F200031A80FB
:1010F00040F2BC23C2F200031B791A4640F2B4232B
:10110000C2F200031B8813439AB240F2B423C2F226
:1011100000031A8080BD00BF80B582B000AF4FF0E1
:1011200000037B6012E07B6803F1040240F2BC2301
:10113000C2F200039A5C40F2BC23C2F20003796859
:101140005B181A707B6803F101037B607B68072BD7
:10115000E9DD40F21023C2F200031B68B3F5804FB3
:101160000AD040F21023C2F200031B684FEAC353B7
:101170004FEAD353002B07D140F21023C2F20003F1
:101180001B681846FFF716FB40F21023C2F200035B
:101190001B68184640F2BC21C2F200014FF0080261
:1011A000FFF79AFB40F21023C2F200031B6803F121
:1011B000080240F21023C2F200031A6007F1080788
:1011C000BD4680BD80B500AF40F2B823C2F2000337
:1011D0004FF000021A8040F2BC23C2F200034FF02D
:1011E0000A029A7001E0FFF741F940F2B823C2F217
:1011F00000031B881AB240F2BC23C2F200039B78A2
:101200009A42F0D180BD00BF80B582B000AF4FF0F0
:1012100000037B804FF000033B804FF000037B60B6
:1012200012E07B889AB240F2BC23C2F200037968D4
:101230005B181B7810461946FFF7F6F803467B80CB
:101240007B6803F101037B6040F2BC23C2F2000320
:101250009B78A3F102027B689A42E2DC40F2BC2355
:10126000C2F200035B7B3B803B889BB24FEA0323C7
:101270009BB23B8040F2BC23C2F200031B7B1A46A8
:101280003B889BB213439BB23B807B889AB23B88DE
:101290009BB29A4202D14FF0010301E04FF00003EC
:1012A000184607F10807BD4680BD00BF07488047C4
:1012B0000749084A084B9B1A40F30580043BC8586D
:1012C000D0503FF7FBAF0548004700002513000052
:1012D00010150000000000209802002055010000B9
:1012E000FEE7FEE7FEE7FEE7FEE7FEE7FEE7FEE7D6
:1012F000FEE7FEE7FEE7FEE7FEE7FEE7FEE7FEE7C6
:10130000FEE7FEE7FEE7FEE7FEE7FEE7FEE7FEE7B5
:10131000FEE7FEE7FEE7FEE7FEE7FEE7FEE7FEE7A5
:10132000FEE700BF80B400AFBD4680BC704700BF81
:1013300010B5034C14B1AFF3008010BD204610BDB2
:101340000000000008B5084B04461BB10021AFF3B4
:10135000008001E000F00CF804480068816A01B1E7
:101360008847204600F048F8000000000015000003
:1013700070B5084B084C0025E01A841003EB840676
:10138000043D1CB172599047013CF9E7BDE870403B
:1013900000F03AB8940200209802002038B50E4DB3
:1013A0000E4B0024E81A8510AC4205D00B4951F8C9
:1013B000242090470134F7E700F020F80849094A53
:1013C000541AA5100024AC4205D0054B53F8240054
:1013D00080470134F7E738BD9002002090020020DA
:1013E000900200209402002082180346934202D00B
:1013F00003F8011BFAE77047FEE700BFF8B500BF2E
:10140000F8BC08BC9E467047F8B500BFF8BC08BCE5
:101410009E4670475741544348444F472074726971
:1014200067676572656421204572726F72206F6E06
:10143000207472616E736D69740D0A0D0A000000EC
:101440005349524B4120426F6F746C6F61646572F7
:1014500020312E300D0A0000506C656173652065E7
:101460006E746572206120636F6D6D616E643A20E9
:101470000D0A2030783030202D2055706C6F61645B
:10148000204669726D776172650D0A2030783031BF
:10149000202D20566572696679204669726D7761E4
:1014A00072650D0A2030783032202D20426F6F7423
:1014B000204669726D776172650D0A20307831348B
:1014C000202D2053656E642048656C6C6F0D0A00FA
:1014D0004669726D776172652056414C4944210A14
:1014E0000D0000004669726D7761726520494E56A5
:1014F000414C494421210A0D000000004300000036
:081500002C0200200000000095
:081508004CECFF7F0100000024
:10151000000005800F800A001B801E00140011804F
:10152000338036003C00398028002D80278022003F
:10153000638066006C00698078007D80778072002F
:10154000500055805F805A004B804E00440041801F
:10155000C380C600CC00C980D800DD80D780D2000F
:10156000F000F580FF80FA00EB80EE00E400E180FF
:10157000A000A580AF80AA00BB80BE00B400B180EF
:10158000938096009C00998088008D8087808200DF
:10159000838186018C01898198019D8197819201C7
:1015A000B001B581BF81BA01AB81AE01A401A181B7
:1015B000E001E581EF81EA01FB81FE01F401F181A7
:1015C000D381D601DC01D981C801CD81C781C20197
:1015D000400145814F814A015B815E015401518187
:1015E000738176017C01798168016D816781620177
:1015F000238126012C01298138013D813781320167
:10160000100115811F811A010B810E010401018156
:10161000038306030C03098318031D831783120336
:10162000300335833F833A032B832E032403218326
:10163000600365836F836A037B837E037403718316
:10164000538356035C03598348034D834783420306
:10165000C003C583CF83CA03DB83DE03D403D183F6
:10166000F383F603FC03F983E803ED83E783E203E6
:10167000A383A603AC03A983B803BD83B783B203D6
:10168000900395839F839A038B838E0384038183C6
:10169000800285828F828A029B829E0294029182BE
:1016A000B382B602BC02B982A802AD82A782A202AE
:1016B000E382E602EC02E982F802FD82F782F2029E
:1016C000D002D582DF82DA02CB82CE02C402C1828E
:1016D000438246024C02498258025D82578252027E
:1016E000700275827F827A026B826E02640261826E
:1016F000200225822F822A023B823E02340231825E
:10170000138216021C02198208020D82078202024D
:10171000AAAA050001000000AAAA05000000000016
:1017200000400000003800000138000002380000CE
:1017300003380000043800000638000000000000F4
:101740000000000000000000000000000000000099
:10175000000000000000000000000000FC14000079
:101760000000000000000000000000000000000079
:101770000000000000000000000000000000000069
:101780000000000000000000000000000000000059
:101790000000000000000000000000000000000049
:0817A000250100000101000019
:04000003000012AD3A
:00000001FF
