:1000000000100020B10C0000E70C0000E90C00001B
:10001000EB0C0000ED0C0000EF0C0000E50C000004
:10002000E50C0000E50C0000E50C0000F10C000000
:10003000F30C0000E50C0000F50C0000F70C0000CC
:10004000F90C0000FB0C0000D90400008D04000036
:10005000010D0000030D0000050D0000070D00005C
:10006000090D00000B0D00000D0D00000F0D00002C
:10007000110D0000130D0000150D0000170D0000FC
:10008000190D00001B0D00001D0D00001F0D0000CC
:10009000210D0000230D0000250D000000000000D0
:1000A0000000000000000000000000000000000050
:1000B0000000000000000000000000000000000040
:1000C0000000000000000000000000000000000030
:1000D0000000000000000000000000000000000020
:1000E0000000000000000000000000000000000010
:1000F0000000000000000000000000000000000000
:1001000010B5054C237833B9044810B10448AFF357
:1001100000800121217010BD80020020000000003D
:10012000EC0E000008B5064B1BB106480649AFF3BC
:1001300000800648016811B1054A02B1904708BD28
:1001400000000000EC0E000084020020800200206D
:1001500000000000154B002B08BF134B9D46A3F574
:10016000803A00218B460F461348144A121A00F0B9
:1001700039FE0F4B002B00D098470E4B002B00D0C0
:1001800098470020002104460D4600200C4900221B
:10019000002300F0CBFD00F0FFFD2046294600F0D3
:1001A00061F800F0CDFD00BF000008000010002045
:1001B000000000000000000080020020B2020020C9
:1001C0006D0D000008B54FF4C043C4F200034FF4B6
:1001D00080429A654FF42040C4F20C00416811F04F
:1001E000100F05D040F61060C0F2000000F036FBA2
:1001F00040F63C60C0F2000000F030FB40F6546076
:10020000C0F2000000F02AFB4FF4C043C4F2000328
:100210004FF48042DA654FF4C040C4F20C004FF056
:100220000101416208BD00BF08B54FF4C043C4F2EC
:1002300000034FF480429A6530B140F6B860C0F2D6
:10024000000000F00BFB05E040F6CC60C0F20000BF
:1002500000F004FB4FF4C040C4F200004FF48041B2
:10026000816508BD38B500F083F800F0ADF800F006
:100270006DF800F0D3F800F0DDF800F0F1F843F687
:100280000D03187828B900F031FB012801D100F0E6
:1002900039F840F2A424C2F2000440F6CC65C0F262
:1002A0000005FFF78FFF00F02BFC2178AA29F8D179
:1002B0006278AA2AF5D1E3787F2BF2D12079012840
:1002C0000AD010B10228ECD10BE000F091FC00F054
:1002D0000DFBFFF7A9FFE4E700F008FBFFF7A4FF21
:1002E000DFE700F003FB10B100F00CF8D9E7284677
:1002F00000F0B4FAD5E700BF80F3088880F30988DE
:100300008F46704708B54FF46D42CEF200024FF4AD
:100310008043936018685968FFF7EEFF08BD00BF7F
:1003200081EA102140F20003C2F2000333F81120E9
:1003300082EA002080B270474FF46D43CEF2000392
:100340001A6922F00400186130BF70474FF440432F
:10035000C4F200034FF480725A6140F60540D86041
:1003600041F6F971996440F203325A65704700BF53
:100370004FF40043C4F20C0340F22C62C0F20C02B2
:100380001A60186A40F0040119624FF40042C4F286
:100390000C02D36A13F0080FFBD04FF40040C4F2F4
:1003A0000C004FF4807181604FF0020242624FF006
:1003B000540343644FF0050181624FF0040202646C
:1003C0004FF0B303436170474FF4C042C4F20002E0
:1003D0004FF0806313654FF48040D0654FF4C04206
:1003E00060F31F424FF48201C2F898104FF4C043EB
:1003F00060F31F434FF40052C3F8A0204FF4C041F4
:1004000060F31F41D1F8203143F004014FF4C042A2
:1004100060F31F42C2F82011704700BF4FF4004341
:10042000C4F2080340F60C221A604FF00000586036
:10043000704700BF4FF00003C4F201034FF04002C9
:100440001A604FF4C850D8614FF00101D9604FF4E1
:100450006143CEF200034FF004021A60704700BF00
:1004600008B500F001F808BD4FF46143CEF2000377
:100470004FF00802C3F880211A604FF44040C4F2E4
:100480000000C16C41F00403C364704710B540F232
:10049000A023C2F20003B3F9000008B900F0ACF9E0
:1004A00040F2A021C2F200010A884FF44044C4F295
:1004B0000004E46940F2A423C2F2000310B21C5409
:1004C00002F1010292B20A8011B29B78994201D1E5
:1004D00000F09AF910BD00BF08B500F0A1F900F0D6
:1004E00093F940F2A023C2F200034FF000021A80F9
:1004F00040F2A420C2F200004FF00A01817008BD52
:100500004FF00003C4F20C039A6842F001019960B5
:1005100018614FF00100D860DB6913F0040F0AD0B6
:100520004FF00003C4F20C03996821F001029A60B5
:100530004FF0FF0248E04FF00002C4F20C02D16914
:1005400011F0020F0AD04FF00001C4F20C018A68CA
:1005500022F0010088604FF0FE0235E04FF000000D
:10056000C4F20C004FF00203C360C26912F0010F25
:1005700020D049F28063C0F298034FF00001C4F22A
:100580000C0103F1FF321346C86910F0010F05D0CA
:1005900002F1FF33CA6912F0010F17D153B94FF0BE
:1005A0000001C4F20C01886820F001038B604FF059
:1005B000FD0209E04FF00001C4F20C01886820F050
:1005C00001038B604FF0000250B27047002BD8D16E
:1005D000E5E700BF30B44FF00003C4F20C03DA6962
:1005E00012F0080F1AD149F28063C0F298034FF05D
:1005F0000004C4F20C0403F1FF321346E56915F060
:10060000080F09D102F1FF33E26912F0080F61D03F
:1006100002E04FF0FD004DE0002B46D000291BDD2D
:100620004FF00004C4F20C0401F1FF3303F00102A7
:1006300050F8043BA3614FF001038B4240D10BE023
:10064000024652F8045BA5614068A06103F1020311
:1006500002F104008B42F3D14FF00001C4F20C010F
:100660004FF00803CB60CA6912F0010F20D049F2A5
:100670008063C0F298034FF00001C4F20C0103F153
:10068000FF321346C86910F0010F09D002F1FF33A1
:10069000CA6912F0010F10D102E04FF0FD0009E02D
:1006A000002B0CBFFD20002004E04FF0FD0001E016
:1006B0004FF0000040B230BC7047002BDFD1ECE7B8
:1006C000002ABDD050F8042BA26103F101038B4234
:1006D000B6D1C1E7002B8ED19BE700BF4FF00003DE
:1006E000C4F20C0318614FF00102DA60D86910F00F
:1006F000060F09D010F0040F09D100F00201002903
:1007000014BFFE23002304E04FF0000301E04FF08C
:10071000FF0358B2704700BF2DE9F84F80464FF0F5
:100720000003C4F20C03986840F001069E604FEA93
:10073000A206002E38DD89464FF000044FF0010A72
:1007400008EB84052846FFF7C9FF074680BB4FEA40
:10075000C5514FEAD152C2F500754FEA9505331BDA
:100760009D42A8BF1D466419DDB105F1FF3000F0C0
:10077000010B48465146FFF72DFF014618B316E01E
:1007800048465146FFF726FF014680B909F10409A2
:1007900005F1FF3548465146FFF71CFF014628B3D7
:1007A00005E0A642CCDC03E04FF0000700E00F4676
:1007B0004FF00003C4F20C039A6822F00100986025
:1007C00078B2BDE8F88F09F10409013DE9D0BBF129
:1007D000000FD5D048465146FFF7FCFE01460028E1
:1007E000E5D109F10409013DDBD0C9E709F10409AC
:1007F000013DD6D0C4E700BF4FF00003C4F20103AF
:100800004FF001025A6070474FF00003C4F2010339
:100810004FF002025A604FF000005862704700BF6C
:100820004FF00003C4F201034FF001029A617047D8
:100830004FF44042C4F20002136913F0400FFBD0A2
:100840004FF44041C4F2000148634FF44040C4F209
:100850000000026912F0200FFBD0704710B504466B
:10086000007828B1FFF7E4FF14F8010F0028F9D150
:1008700010BD00BF4FF40043C4F20803186810F025
:10088000010F16D04FF40041C4F208018A6812F03B
:10089000020F0ED14FF40040C4F20800836813F039
:1008A000010FFBD14FF40041C4F208014FF00102E7
:1008B0004A60704700F1047001EBC0014FEA810308
:1008C0001A60704708B5024638B94FF40041C4F2C7
:1008D00008018B6813F0010FFBD14FF40040C4F204
:1008E00008004FF00001FFF7E5FF08BD30B587B005
:1008F0004FF4605213788DF8083043F60100017808
:100900008DF8091043F6020425788DF80A5043F655
:10091000030318788DF80B0043F6040421888DF842
:100920000C1025884FEA15238DF80D3043F606008C
:1009300004688DF80E4001684FEA11258DF80F50BC
:1009400043888DF81030C4788DF811404FF0FF01C6
:100950008DF812108DF8131040F20825C2F2000530
:100960002A604FF00002ADF80620006888B14FF40D
:10097000804443F60605BDF8063098B214F8011B12
:10098000FFF7CEFCADF80600A4F580412A6891423D
:10099000F1D3BDF8060084B243F604052B88A342C8
:1009A0001AD14FF001048DF814404FF000018DF87A
:1009B00015108DF816108DF8171040F20825C2F2A8
:1009C00000052868FFF79CFD286802A94FF0100277
:1009D000FFF7A2FE204617E04FF000048DF8144008
:1009E0008DF815408DF816408DF8174040F2082517
:1009F000C2F200052868FFF783FD286802A94FF0BE
:100A00001002FFF789FE204607B030BD38B54FF41D
:100A1000C043C4F200034FF480459D6540F20024BA
:100A2000C2F200042078FFF703FF6078FFF700FFB1
:100A3000A078FFF7FDFEE078FFF7FAFE2079FFF7D8
:100A4000F7FE4FF4C04065F31F40C56538BD00BFD9
:100A500038B54FF4C043C4F200034FF480459D65A0
:100A600040F20C24C2F200042078FFF7E1FE607827
:100A7000FFF7DEFEA078FFF7DBFEE078FFF7D8FE99
:100A80002079FFF7D5FE4FF4C04065F31F40C565E0
:100A900038BD00BF10B540F2A423C2F200031A799A
:100AA0001A705879587099799970DC79DC701A7AD3
:100AB0001A71587A5871997A9971DC7ADC7140F21E
:100AC0000823C2F200031868B0F5804F04D04FEA43
:100AD000C0524FEAD25109B9FFF712FD40F2082483
:100AE000C2F20004206840F2A421C2F200014FF0DB
:100AF0000802FFF711FE206800F10800206010BD19
:100B000038B540F2A023C2F200034FF000021A8071
:100B100040F2A420C2F200004FF00A01817040F2BE
:100B2000A025C2F200050446FFF706FCB5F9002037
:100B3000A3789A42F8D138BD08B5FFF7E1FF40F23B
:100B4000A423C2F200035A79187940EA022140F244
:100B50009C23C2F20003198008BD00BF30B583B0EA
:100B60004FF00003ADF80630ADF8043040F2A42099
:100B7000C2F200008178A1F10201002914DD4FF0DA
:100B8000000440F2A425C2F20005BDF8062090B290
:100B9000615DFFF7C5FBADF8060004F10104AB7819
:100BA000A3F10203A342F0DC40F2A420C2F2000051
:100BB000417BADF80410BDF804204FEA022303F492
:100BC0007F41ADF80410BDF8042093B2007B43EAE6
:100BD0000001ADF80410BDF8062090B2BDF8043055
:100BE00099B2884214BF0020012003B030BD00BF7D
:100BF00038B540F20823C2F200034FF480421A6075
:100C00004FF00100FFF75EFEFFF796FFFFF732FEA1
:100C1000FFF7FCFE40F29C20C2F200000188D1B137
:100C20004FF0000440F29C25C2F20005FFF768FF78
:100C3000FFF720FEFFF792FF30B1FFF72BFFFFF722
:100C400019FEFFF7E3FE01E0FFF702FF04F10104E4
:100C50002B88A342EADCFFF753FFFFF70BFEFFF7F9
:100C60007DFF00B340F20825C2F200054FF460504A
:100C70002860027840F2A424C2F20004227043F6F5
:100C800001010B78637043F602021178A17043F6FC
:100C900003031A78E270FFF733FC286821464FF00F
:100CA0000C02FFF739FD4FF00000FFF70BFE38BDD7
:100CB000074880470749084A084B9B1A40F30580BC
:100CC000043BC858D0503FF7FBAF05480047000031
:100CD000290D0000F80E0000000000208002002016
:100CE00055010000FEE7FEE7FEE7FEE7FEE7FEE750
:100CF000FEE7FEE7FEE7FEE7FEE7FEE7FEE7FEE7CC
:100D0000FEE7FEE7FEE7FEE7FEE7FEE7FEE7FEE7BB
:100D1000FEE7FEE7FEE7FEE7FEE7FEE7FEE7FEE7AB
:100D2000FEE7FEE7FEE700BF704700BF10B5034CCB
:100D300014B1AFF3008010BD204610BD00000000CC
:100D400008B5084B04461BB10021AFF3008001E059
:100D500000F00CF804480068816A01B18847204619
:100D600000F048F800000000E80E000070B5084BE5
:100D7000084C0025E01A841003EB8406043D1CB1E6
:100D800072599047013CF9E7BDE8704000F03AB86D
:100D90007C0200208002002038B50E4D0E4B00244E
:100DA000E81A8510AC4205D00B4951F82420904731
:100DB0000134F7E700F020F80849094A541AA51051
:100DC0000024AC4205D0054B53F824008047013481
:100DD000F7E738BD78020020780200207802002072
:100DE0007C02002082180346934202D003F8011BC4
:100DF000FAE77047FEE700BFF8B500BFF8BC08BCD3
:100E00009E467047F8B500BFF8BC08BC9E467047C8
:100E10005741544348444F4720747269676765726D
:100E2000656421204572726F72206F6E207472614A
:100E30006E736D69740D0A0D0A0000005349524B20
:100E40004120426F6F746C6F6164657220312E3087
:100E50000D0A0000506C6561736520656E746572E3
:100E6000206120636F6D6D616E643A200D0A203041
:100E7000783030202D2055706C6F61642046697287
:100E80006D776172650D0A2030783031202D205643
:100E90006572696679204669726D776172650D0ABF
:100EA0002030783032202D20426F6F7420466972D6
:100EB0006D776172650D0A004669726D77617265C2
:100EC0002056414C4944210A0D0000004669726DCC
:100ED0007761726520494E56414C494421210A0DE3
:100EE0000000000043000000140200200000000089
:080EF00064F2FF7F0100000025
:100EF800000005800F800A001B801E00140011806E
:100F0800338036003C00398028002D80278022005D
:100F1800638066006C00698078007D80778072004D
:100F2800500055805F805A004B804E00440041803D
:100F3800C380C600CC00C980D800DD80D780D2002D
:100F4800F000F580FF80FA00EB80EE00E400E1801D
:100F5800A000A580AF80AA00BB80BE00B400B1800D
:100F6800938096009C00998088008D8087808200FD
:100F7800838186018C01898198019D8197819201E5
:100F8800B001B581BF81BA01AB81AE01A401A181D5
:100F9800E001E581EF81EA01FB81FE01F401F181C5
:100FA800D381D601DC01D981C801CD81C781C201B5
:100FB800400145814F814A015B815E0154015181A5
:100FC800738176017C01798168016D816781620195
:100FD800238126012C01298138013D813781320185
:100FE800100115811F811A010B810E010401018175
:100FF800038306030C03098318031D831783120355
:10100800300335833F833A032B832E032403218344
:10101800600365836F836A037B837E037403718334
:10102800538356035C03598348034D834783420324
:10103800C003C583CF83CA03DB83DE03D403D18314
:10104800F383F603FC03F983E803ED83E783E20304
:10105800A383A603AC03A983B803BD83B783B203F4
:10106800900395839F839A038B838E0384038183E4
:10107800800285828F828A029B829E0294029182DC
:10108800B382B602BC02B982A802AD82A782A202CC
:10109800E382E602EC02E982F802FD82F782F202BC
:1010A800D002D582DF82DA02CB82CE02C402C182AC
:1010B800438246024C02498258025D82578252029C
:1010C800700275827F827A026B826E02640261828C
:1010D800200225822F822A023B823E02340231827C
:1010E800138216021C02198208020D82078202026C
:1010F800AAAA05000100000000400000AAAA0500F5
:1011080000000000000000000000000000000000D7
:1011180000000000000000000000000000000000C7
:1011280000000000E40E00000000000000000000C5
:1011380000000000000000000000000000000000A7
:101148000000000000000000000000000000000097
:101158000000000000000000000000000000000087
:10116800000000000000000025010000010100004F
:0400000300000CB13C
:00000001FF
