:1000000000100020390E00006F0E0000710E00007D
:10001000730E0000750E0000770E00006D0E0000DC
:100020006D0E00006D0E00006D0E0000790E0000D8
:100030007B0E00006D0E00007D0E00007F0E0000A4
:10004000810E0000830E0000510500000505000030
:10005000890E00008B0E00008D0E00008F0E000038
:10006000910E0000930E0000950E0000970E000008
:10007000990E00009B0E00009D0E00009F0E0000D8
:10008000A10E0000A30E0000A50E0000A70E0000A8
:10009000A90E0000AB0E0000AD0E00000000000035
:1000A0000000000000000000000000000000000050
:1000B0000000000000000000000000000000000040
:1000C0000000000000000000000000000000000030
:1000D0000000000000000000000000000000000020
:1000E0000000000000000000000000000000000010
:1000F0000000000000000000000000000000000000
:1001000010B5054C237833B9044810B10448AFF357
:1001100000800121217010BD980200200000000025
:100120007410000008B5064B1BB106480649AFF332
:1001300000800648016811B1054A02B1904708BD28
:1001400000000000741000009C02002098020020B3
:1001500000000000154B002B08BF134B9D46A3F574
:10016000803A00218B460F461348144A121A00F0B9
:10017000FDFE0F4B002B00D098470E4B002B00D0FC
:1001800098470020002104460D4600200C4900221B
:10019000002300F08FFE00F0C3FE2046294600F049
:1001A00061F800F091FE00BF000008000010002080
:1001B000000000000000000098020020CA02002099
:1001C000F50E000008B54FF4C043C4F200034FF42D
:1001D00080429A654FF42040C4F20C00416811F04F
:1001E000100F05D040F69870C0F2000000F028FC17
:1001F00040F6C470C0F2000000F022FC40F6DC7053
:10020000C0F2000000F01CFC4FF4C043C4F2000335
:100210004FF48042DA654FF4C040C4F20C004FF056
:100220000101416208BD00BF08B54FF4C043C4F2EC
:1002300000034FF480429A6530B141F24000C0F2B1
:10024000000000F0FDFB05E041F25400C0F20000A8
:1002500000F0F6FB4FF4C040C4F200004FF48041C0
:10026000C16508BD2DE9F04100F0BEF800F0E8F8E6
:1002700000F0A8F800F00EF900F018F900F02CF9E1
:1002800043F60D03187828B900F022FC012801D1AB
:1002900000F074F8FFF796FF40F2BC24C2F20004AD
:1002A0004FF4C046C4F200064FF4804541F25408B2
:1002B000C0F200084FF4C04700F0D8FC2178AA290A
:1002C000FAD16278AA2AF7D1E3787F2BF4D120798A
:1002D0001428F1D801A252F820F000BF3103000029
:1002E0003F03000049030000B9020000B90200000A
:1002F000B9020000B9020000B9020000B902000012
:10030000B9020000B9020000B9020000B902000001
:10031000B9020000B9020000B9020000B9020000F1
:10032000B9020000B9020000B90200006B0300002E
:1003300000F014FD00F0CCFBFFF776FFBCE700F007
:10034000C7FBFFF771FFB7E700F0C2FB20B100F079
:10035000F1FB00F013F8AFE7B565404600F070FB25
:10036000394665F31F41CD65A6E700F081FAA3E7A2
:1003700080F3088880F309888F46704708B54FF4EA
:100380006D42CEF200024FF48043936018685968C2
:10039000FFF7EEFF08BD00BF81EA102140F2000325
:1003A000C2F2000333F8112082EA002080B27047C5
:1003B0004FF46D43CEF200031A6922F00400186175
:1003C00030BF70474FF44043C4F200034FF48072D3
:1003D0005A6140F60540D86041F6F971996440F2DF
:1003E00003325A65704700BF4FF40043C4F20C0358
:1003F00040F22C62C0F20C021A60186A40F004014C
:1004000019624FF40042C4F20C02D36A13F0080FD1
:10041000FBD04FF40040C4F20C004FF480718160B7
:100420004FF0020242624FF0540343644FF0050163
:1004300081624FF0040202644FF0B30343617047DE
:100440004FF4C042C4F200024FF0806313654FF4D2
:100450008040D0654FF4C04260F31F424FF48201E8
:10046000C2F898104FF4C04360F31F434FF400529A
:10047000C3F8A0204FF4C04160F31F41D1F82031F0
:1004800043F004014FF4C04260F31F42C2F8201150
:10049000704700BF4FF40043C4F2080340F60C223B
:1004A0001A604FF000005860704700BF4FF0000323
:1004B000C4F201034FF040021A604FF4C850D861F3
:1004C0004FF00101D9604FF46143CEF200034FF0C9
:1004D00004021A60704700BF08B500F001F808BDBB
:1004E0004FF46143CEF200034FF00802C3F88021BD
:1004F0001A604FF44040C4F20000C16C41F00403A4
:10050000C364704710B540F2B823C2F20003B3F9D8
:10051000000008B900F062FA40F2B821C2F200010E
:100520000A884FF44044C4F20004E46940F2BC235A
:10053000C2F2000310B21C5402F1010292B20A800E
:1005400011B29B78994201D100F050FA10BD00BF62
:1005500008B500F057FA00F049FA40F2B823C2F2A9
:1005600000034FF000021A8040F2BC20C2F20000EB
:100570004FF00A01817008BD4FF00003C4F20C0374
:100580009A6842F00101996018614FF00100D8604B
:10059000DB6913F0040F0AD04FF00003C4F20C0320
:1005A000996821F001029A604FF0FF0248E04FF095
:1005B0000002C4F20C02D16911F0020F0AD04FF010
:1005C0000001C4F20C018A6822F0010088604FF03B
:1005D000FE0235E04FF00000C4F20C004FF00203C1
:1005E000C360C26912F0010F20D049F28063C0F2EB
:1005F00098034FF00001C4F20C0103F1FF321346DF
:10060000C86910F0010F05D002F1FF33CA6912F07A
:10061000010F17D153B94FF00001C4F20C018868E3
:1006200020F001038B604FF0FD0209E04FF0000164
:10063000C4F20C01886820F001038B604FF00002C7
:1006400050B27047002BD8D1E5E700BF30B44FF06F
:100650000003C4F20C03DA6912F0080F1AD149F250
:100660008063C0F298034FF00004C4F20C0403F15D
:10067000FF321346E56915F0080F09D102F1FF3387
:10068000E26912F0080F61D002E04FF0FD004DE08A
:10069000002B46D000291BDD4FF00004C4F20C04EF
:1006A00001F1FF3303F0010250F8043BA3614FF066
:1006B00001038B4240D10BE0024652F8045BA56176
:1006C0004068A06103F1020302F104008B42F3D100
:1006D0004FF00001C4F20C014FF00803CB60CA696F
:1006E00012F0010F20D049F28063C0F298034FF05E
:1006F0000001C4F20C0103F1FF321346C86910F087
:10070000010F09D002F1FF33CA6912F0010F10D1B5
:1007100002E04FF0FD0009E0002B0CBFFD2000209F
:1007200004E04FF0FD0001E04FF0000040B230BCAB
:100730007047002BDFD1ECE7002ABDD050F8042B26
:10074000A26103F101038B42B6D1C1E7002B8ED128
:100750009BE700BF4FF00003C4F20C0318614FF099
:100760000102DA60D86910F0060F09D010F0040F0A
:1007700009D100F00201002914BFFE23002304E088
:100780004FF0000301E04FF0FF0358B2704700BF85
:100790002DE9F84F80464FF00003C4F20C0398682F
:1007A00040F001069E604FEAA206002E38DD894621
:1007B0004FF000044FF0010A08EB84052846FFF7CC
:1007C000C9FF074680BB4FEAC5514FEAD152C2F577
:1007D00000754FEA9505331B9D42A8BF1D4664195D
:1007E000DDB105F1FF3000F0010B48465146FFF73F
:1007F0002DFF014618B316E048465146FFF726FF85
:10080000014680B909F1040905F1FF354846514612
:10081000FFF71CFF014628B305E0A642CCDC03E04D
:100820004FF0000700E00F464FF00003C4F20C0346
:100830009A6822F00100986078B2BDE8F88F09F15B
:100840000409013DE9D0BBF1000FD5D0484651461F
:10085000FFF7FCFE01460028E5D109F10409013D3E
:10086000DBD0C9E709F10409013DD6D0C4E700BFD8
:1008700030B585B04FF00003ADF80E304FF0AA0050
:100880008DF804008DF805004FF007018DF8061073
:100890008DF807304FF07F048DF808404FF4C045C5
:1008A000C4F200054FF48044AC65BDF80E309DF8ED
:1008B000045098B22946FFF76FFDADF80E002846A8
:1008C00000F0A8F8BDF80E209DF8055090B229461A
:1008D000FFF762FDADF80E00284600F09BF8BDF86A
:1008E0000E009DF8065080B22946FFF755FDADF881
:1008F0000E00284600F08EF8BDF80E109DF8075047
:1009000088B22946FFF748FDADF80E00284600F0F2
:1009100081F8BDF80E309DF8085098B22946FFF7CF
:100920003BFDADF80E00284600F074F8BDF80E202F
:10093000BDF80E0085B2D0B200F06CF84FEA152079
:1009400000F068F84FF4C04164F31F41CC6505B076
:1009500030BD00BF38B54FF4C043C4F200034FF4BC
:1009600080459D6540F20024C2F20004207800F02A
:1009700051F8607800F04EF8A07800F04BF8E0787D
:1009800000F048F8207900F045F84FF4C04065F3D6
:100990001F40C56538BD00BF38B54FF4C043C4F231
:1009A00000034FF480459D6540F20824C2F2000424
:1009B000207800F02FF8607800F02CF8A07800F094
:1009C00029F8E07800F026F8207900F023F84FF4B9
:1009D000C04065F31F40C56538BD00BF4FF0000340
:1009E000C4F201034FF001025A6070474FF0000358
:1009F000C4F201034FF002025A604FF00000586247
:100A0000704700BF4FF00003C4F201034FF0010232
:100A10009A6170474FF44042C4F20002136913F028
:100A2000400FFBD04FF44041C4F2000148634FF443
:100A30004040C4F20000026912F0200FFBD0704762
:100A400010B50446007828B1FFF7E4FF14F8010F51
:100A50000028F9D110BD00BF4FF40043C4F20803D1
:100A6000186810F0010F16D04FF40041C4F20801CD
:100A70008A6812F0020F0ED14FF40040C4F2080051
:100A8000836813F0010FFBD14FF40041C4F2080159
:100A90004FF001024A60704700F1047001EBC001A1
:100AA0004FEA81031A60704708B5024638B94FF41F
:100AB0000041C4F208018B6813F0010FFBD14FF421
:100AC0000040C4F208004FF00001FFF7E5FF08BD49
:100AD00030B583B04FF00003ADF8063040F214207B
:100AE000C2F2000001680A68A2B14FF4804440F2EB
:100AF0001425C2F20005BDF8063098B214F8011BA7
:100B0000FFF74AFCADF80600A4F5804029680A68A2
:100B10009042F0D3BDF8063099B240F22420C2F2E0
:100B2000000002681088884214BF0020012003B032
:100B300030BD00BF10B584B040F22824C2F20004DA
:100B40004FF46050206040F22023C2F20003196885
:100B50000A788DF8002040F21C23C2F200031968C5
:100B60000A788DF8012040F21023C2F200031968C0
:100B70000A788DF8022040F21823C2F200031968A7
:100B80000A788DF8032040F22423C2F2000319688A
:100B90000A888DF804200B884FEA13218DF8051080
:100BA00040F21422C2F20002136819688DF8061090
:100BB0001A684FEA12218DF807105A888DF808201C
:100BC000DB788DF809304FF0FF018DF80A108DF8B1
:100BD0000B104FF001028DF80C204FF000038DF840
:100BE0000D308DF80E308DF80F30FFF7C5FC206802
:100BF00069464FF01002FFF7CBFD04B010BD00BFF7
:100C000010B540F2BC23C2F200031A791A70587969
:100C1000587099799970DC79DC701A7A1A71587A5F
:100C20005871997A9971DC7ADC7140F22823C2F20A
:100C300000031868B0F5804F04D04FEAC0524FEA65
:100C4000D25109B9FFF798FC40F22824C2F20004FF
:100C5000206840F2BC21C2F200014FF00802FFF709
:100C600097FD206800F10800206010BD38B540F203
:100C7000B823C2F200034FF000021A8040F2BC20F9
:100C8000C2F200004FF00A01817040F2B825C2F2B2
:100C900000050446FFF78CFBB5F90020A3789A42C3
:100CA000F8D138BD08B5FFF7E1FF40F2BC23C2F22E
:100CB00000035A79187940EA022140F2B423C2F2C3
:100CC0000003198008BD00BF30B583B04FF00003AA
:100CD000ADF80630ADF8043040F2BC20C2F200009E
:100CE0008178A1F10201002914DD4FF0000440F2E7
:100CF000BC25C2F20005BDF8062090B2615DFFF789
:100D00004BFBADF8060004F10104AB78A3F102033C
:100D1000A342F0DC40F2BC20C2F20000417BADF8FF
:100D20000410BDF804204FEA022303F47F41ADF81C
:100D30000410BDF8042093B2007B43EA0001ADF833
:100D40000410BDF8062090B2BDF8043099B2884274
:100D500014BF0020012003B030BD00BF38B540F201
:100D60002823C2F200034FF480421A604FF00100C2
:100D7000FFF79AFEFFF796FFFFF76EFEFFF7EAFD1B
:100D800040F2B420C2F200000188D1B14FF000045B
:100D900040F2B425C2F20005FFF768FFFFF75CFEE2
:100DA000FFF792FF30B1FFF72BFFFFF755FEFFF77C
:100DB000D1FD01E0FFF7F0FD04F101042B88A3420F
:100DC000EADCFFF753FFFFF747FEFFF77DFF70B345
:100DD00040F22825C2F200054FF46050286040F22E
:100DE0002024C2F200042268117840F2BC24C2F22E
:100DF0000004217040F21C23C2F200031A6811782B
:100E0000617040F21023C2F200031A681178A170D9
:100E100040F21823C2F200031A681178E170FFF75C
:100E2000ABFB286821464FF00C02FFF7B1FC4FF0F6
:100E30000000FFF739FE38BD074880470749084AD8
:100E4000084B9B1A40F30580043BC858D0503FF72D
:100E5000FBAF054800470000B10E00008010000005
:100E6000000000209802002055010000FEE7FEE788
:100E7000FEE7FEE7FEE7FEE7FEE7FEE7FEE7FEE74A
:100E8000FEE7FEE7FEE7FEE7FEE7FEE7FEE7FEE73A
:100E9000FEE7FEE7FEE7FEE7FEE7FEE7FEE7FEE72A
:100EA000FEE7FEE7FEE7FEE7FEE7FEE7FEE700BF40
:100EB000704700BF10B5034C14B1AFF3008010BDF4
:100EC000204610BD0000000008B5084B04461BB1C9
:100ED0000021AFF3008001E000F00CF80448006846
:100EE000816A01B18847204600F048F80000000000
:100EF0007010000070B5084B084C0025E01A8410F3
:100F000003EB8406043D1CB172599047013CF9E79C
:100F1000BDE8704000F03AB894020020980200202A
:100F200038B50E4D0E4B0024E81A8510AC4205D0A2
:100F30000B4951F8242090470134F7E700F020F8DE
:100F40000849094A541AA5100024AC4205D0054BA3
:100F500053F8240080470134F7E738BD90020020A1
:100F60009002002090020020940200208218034684
:100F7000934202D003F8011BFAE77047FEE700BF77
:100F8000F8B500BFF8BC08BC9E467047F8B500BF76
:100F9000F8BC08BC9E4670475741544348444F47ED
:100FA0002074726967676572656421204572726F8B
:100FB00072206F6E207472616E736D69740D0A0D0C
:100FC0000A0000005349524B4120426F6F746C6F0E
:100FD0006164657220312E300D0A0000506C65612D
:100FE000736520656E746572206120636F6D6D613D
:100FF0006E643A200D0A2030783030202D20557054
:101000006C6F6164204669726D776172650D0A20AC
:1010100030783031202D2056657269667920466916
:10102000726D776172650D0A2030783032202D2084
:10103000426F6F74204669726D776172650D0A00A8
:101040004669726D776172652056414C4944210AA8
:101050000D0000004669726D7761726520494E5639
:10106000414C494421210A0D0000000043000000CA
:081070002C020020000000002A
:08107800DCF0FF7F0100000025
:10108000000005800F800A001B801E0014001180E4
:10109000338036003C00398028002D8027802200D4
:1010A000638066006C00698078007D8077807200C4
:1010B000500055805F805A004B804E0044004180B4
:1010C000C380C600CC00C980D800DD80D780D200A4
:1010D000F000F580FF80FA00EB80EE00E400E18094
:1010E000A000A580AF80AA00BB80BE00B400B18084
:1010F000938096009C00998088008D808780820074
:10110000838186018C01898198019D81978192015B
:10111000B001B581BF81BA01AB81AE01A401A1814B
:10112000E001E581EF81EA01FB81FE01F401F1813B
:10113000D381D601DC01D981C801CD81C781C2012B
:10114000400145814F814A015B815E01540151811B
:10115000738176017C01798168016D81678162010B
:10116000238126012C01298138013D8137813201FB
:10117000100115811F811A010B810E0104010181EB
:10118000038306030C03098318031D8317831203CB
:10119000300335833F833A032B832E0324032183BB
:1011A000600365836F836A037B837E0374037183AB
:1011B000538356035C03598348034D83478342039B
:1011C000C003C583CF83CA03DB83DE03D403D1838B
:1011D000F383F603FC03F983E803ED83E783E2037B
:1011E000A383A603AC03A983B803BD83B783B2036B
:1011F000900395839F839A038B838E03840381835B
:10120000800285828F828A029B829E029402918252
:10121000B382B602BC02B982A802AD82A782A20242
:10122000E382E602EC02E982F802FD82F782F20232
:10123000D002D582DF82DA02CB82CE02C402C18222
:10124000438246024C02498258025D825782520212
:10125000700275827F827A026B826E026402618202
:10126000200225822F822A023B823E0234023182F2
:10127000138216021C02198208020D8207820202E2
:10128000AAAA050001000000AAAA050000000000AB
:101290000238000006380000033800000138000062
:1012A000003800000438000000400000000000008A
:1012B000000000000000000000000000000000002E
:1012C0000000000000000000000000006C100000A2
:1012D000000000000000000000000000000000000E
:1012E00000000000000000000000000000000000FE
:1012F00000000000000000000000000000000000EE
:1013000000000000000000000000000000000000DD
:081310002501000001010000AD
:0400000300000E39B2
:00000001FF
