:100000000010002085100000BB100000BD10000093
:10001000BF100000C1100000C3100000B9100000A4
:10002000B9100000B9100000B9100000C5100000A0
:10003000C7100000B9100000C9100000CB1000006C
:10004000CD100000CF100000ED060000810600007A
:10005000D5100000D7100000D9100000DB10000000
:10006000DD100000DF100000E1100000E3100000D0
:10007000E5100000E7100000E9100000EB100000A0
:10008000ED100000EF100000F1100000F310000070
:10009000F5100000F7100000F9100000000000004B
:1000A0000000000000000000000000000000000050
:1000B0000000000000000000000000000000000040
:1000C0000000000000000000000000000000000030
:1000D0000000000000000000000000000000000020
:1000E0000000000000000000000000000000000010
:1000F0000000000000000000000000000000000000
:1001000010B5054C237833B9044810B10448AFF357
:1001100000800121217010BD80020020000000003D
:10012000C812000008B5064B1BB106480649AFF3DC
:1001300000800648016811B1054A02B1904708BD28
:1001400000000000C812000084020020800200208D
:1001500000000000154B002B08BF134B9D46A3F574
:10016000803A00218B460F461348144A121A01F0B8
:1001700027F80F4B002B00D098470E4B002B00D0D8
:1001800098470020002104460D4600200C4900221B
:10019000002300F0B9FF00F0EDFF2046294600F0F3
:1001A00073F800F0BBFF00BF000008000010002043
:1001B000000000000000000080020020B2020020C9
:1001C0004911000080B400AFBD4680BC704700BF3D
:1001D00080B500AF4FF4C043C4F200034FF4804237
:1001E0009A654FF42043C4F20C035B6803F01003DC
:1001F000002B05D041F2EC10C0F2000000F08AFCA8
:1002000041F21820C0F2000000F084FC41F23020DE
:10021000C0F2000000F07EFC4FF4C043C4F20003C3
:100220004FF48042DA654FF4C043C4F20C034FF040
:1002300001025A6280BD00BF80B582B000AF0346A4
:10024000FB714FF4C043C4F200034FF480429A653F
:10025000FB79002B06D041F29420C0F2000000F0A0
:1002600059FC05E041F2A820C0F2000000F052FC69
:100270004FF4C043C4F200034FF480429A6507F183
:100280000807BD4680BD00BF80B500AFFFF79AFFED
:1002900000F0EEF800F03AF900F0C8F800F068F964
:1002A00000F07AF900F094F900E000BFFFF790FF4A
:1002B00000F074FE40F2A423C2F200031B78AA2BC4
:1002C000F3D140F2A423C2F200035B78AA2BECD155
:1002D00040F2A423C2F20003DB787F2BE5D140F289
:1002E000A423C2F200031B79012B0CD0022B11D0E6
:1002F000002B1ED100F08EFC00F01AFD03461846BC
:10030000FFF79AFF16E000F013FD03461846FFF7CB
:1003100093FF0FE000F00CFD0346002B02D000F02D
:100320001BF807E041F2A820C0F2000000F0F2FB49
:1003300000E000BFB9E700BF80B483B000AF7860D1
:10034000396080F3088880F309888F4607F10C072D
:10035000BD4680BC704700BF80B584B000AF4FF48D
:100360008043FB604FF46D43CEF20003FA689A605D
:10037000FB681B68BB60FB685B687B60B86879687A
:10038000FFF7DAFF07F11007BD4680BD80B483B0E8
:1003900000AF02460B46FA807B71FB884FEA0323CD
:1003A0009AB2FB884FEA13239BB219467B795940D6
:1003B00040F20003C2F2000333F811309BB2534005
:1003C0009BB29BB2184607F10C07BD4680BC704734
:1003D00080B400AF4FF46D43CEF200034FF46D4292
:1003E000CEF20002126922F004021A6130BFBD464B
:1003F00080BC704780B483B000AF0346FB714FF4FC
:100400006143CEF2000397F907204FEA5212F979BF
:1004100001F01F014FF0010000FA01F143F8221032
:1004200007F10C07BD4680BC704700BF80B400AF29
:100430004FF44043C4F200034FF480725A614FF40A
:100440004043C4F2000340F60542DA604FF44043F3
:10045000C4F2000341F6F9729A644FF44043C4F2C7
:10046000000340F203325A65BD4680BC704700BFAE
:1004700080B400AF4FF40043C4F20C0340F22C628E
:10048000C0F20C021A604FF40043C4F20C034FF4A4
:100490000042C4F20C02126A42F004021A6200BF67
:1004A0004FF40043C4F20C03DB6A03F00803002B93
:1004B000F6D04FF40043C4F20C034FF480729A60FC
:1004C0004FF40043C4F20C034FF002025A624FF49F
:1004D0000043C4F20C034FF054025A644FF400433B
:1004E000C4F20C034FF005029A624FF40043C4F2C9
:1004F0000C034FF004021A644FF40043C4F20C03DF
:100500004FF0B3025A61BD4680BC704780B400AF63
:100510004FF4C043C4F200034FF080621A654FF4F9
:10052000C043C4F200034FF48042DA654FF4C04385
:10053000C4F200034FF48202C3F898204FF4C04382
:10054000C4F200034FF40052C3F8A0204FF4C0439C
:10055000C4F200034FF4C042C4F20002D2F82021DA
:1005600042F00402C3F82021BD4680BC704700BFA2
:1005700080B400AF4FF40043C4F2080340F60C22ED
:100580001A604FF40043C4F208034FF000025A60AF
:10059000BD4680BC704700BF80B500AF4FF0000380
:1005A000C4F201034FF040021A604FF00003C4F29E
:1005B00001034FF4C852DA614FF00003C4F20103A3
:1005C0004FF00102DA604FF00200FFF713FF80BD29
:1005D00080B500AF00F03CF880BD00BF80B483B0B0
:1005E00000AF0346FB714FF46143CEF2000397F96D
:1005F00007204FEA5212F97901F01F014FF0010074
:1006000000FA01F143F8221007F10C07BD4680BC47
:10061000704700BF80B483B000AF0346FB714FF456
:100620006143CEF2000397F907204FEA5212F9799D
:1006300001F01F014FF0010000FA01F102F1600228
:1006400043F8221007F10C07BD4680BC704700BF7D
:1006500080B500AF4FF00300FFF7DCFF4FF0030061
:10066000FFF7BCFF4FF44043C4F200034FF4404295
:10067000C4F20002D26C42F00402DA6480BD00BF12
:1006800080B500AF40F2A023C2F200031B88002B0C
:1006900001D100F0EFF940F2A023C2F200031A8862
:1006A00011B24FF44043C4F20003DB69D8B240F208
:1006B000A423C2F200035854134603F101039AB273
:1006C00040F2A023C2F200031A8040F2A023C2F23B
:1006D00000031B881AB240F2A423C2F200039B78E5
:1006E0009A4201D100F0D2F980BD00BF80B500AFC1
:1006F00000F0E0F900F0CAF940F2A023C2F20003D2
:100700004FF000021A8040F2A423C2F200034FF01F
:100710000A029A7080BD00BF80B485B000AF7860D7
:1007200049F28063C0F29803FB604FF00003C4F20B
:100730000C034FF00002C4F20C02926842F0010276
:100740009A604FF00003C4F20C037A681A614FF00C
:100750000003C4F20C034FF00102DA604FF0000313
:10076000C4F20C03DB6903F00403002B0ED04FF03E
:100770000003C4F20C034FF00002C4F20C029268B2
:1007800022F001029A604FF0FF034FE04FF00003A8
:10079000C4F20C03DB6903F00203002B0ED04FF010
:1007A0000003C4F20C034FF00002C4F20C02926882
:1007B00022F001029A604FF0FE0337E04FF0000391
:1007C000C4F20C034FF00202DA6003E0FB6803F1AD
:1007D000FF33FB604FF00003C4F20C03DB6903F04E
:1007E0000103002B02D0FB68002BEFD1FB68002B2C
:1007F0000ED14FF00003C4F20C034FF00002C4F21C
:100800000C02926822F001029A604FF0FD030DE0A5
:100810004FF00003C4F20C034FF00002C4F20C02CC
:10082000926822F001029A604FF000035BB2184612
:1008300007F11407BD4680BC704700BF80B58AB081
:1008400000AFF860B9607A604FF00003FB764FF0BC
:100850000003C4F20C034FF00002C4F20C029268D1
:1008600042F001029A607B684FEAA3037B61BB6898
:10087000FB614FF000037B6240E07B6A4FEA830339
:10088000FA68D318184600F0BFF80346FB7697F9CC
:100890001B30002B37D17B6A4FEA8303FA68D318E9
:1008A0004FEAC3534FEAD353C3F500734FEA9303A0
:1008B0003B627A697B6AD21A3B6A9A4203DA7A69A6
:1008C0007B6AD31A3B627A6A3B6AD3187B6212E076
:1008D000F8694FF0010100F02DF80346FB7697F917
:1008E0001B30002B11D1FB6903F10403FB613B6A50
:1008F00003F1FF333B623B6A002BE9D17A6A7B69E3
:100900009A42BADB02E000BF00E000BF4FF00003F4
:10091000C4F20C034FF00002C4F20C02926822F001
:1009200001029A60FB7E5BB2184607F12807BD46BC
:1009300080BD00BF80B485B000AF7860396049F2F7
:100940008063C0F29803FB6049F28063C0F29803B1
:10095000FB6003E0FB6803F1FF33FB604FF0000333
:10096000C4F20C03DB6903F00803002B02D1FB681F
:10097000002BEFD1FB68002B02D14FF0FD033BE0D1
:100980004FF00003BB600EE04FF00003C4F20C0315
:100990007A6812689A61BB6803F10103BB607B68E7
:1009A00003F104037B60BA683B689A42ECDB4FF0CA
:1009B0000003C4F20C034FF00802DA6049F28063CE
:1009C000C0F29803FB6003E0FB6803F1FF33FB60B8
:1009D0004FF00003C4F20C03DB6903F00103002BAA
:1009E00002D0FB68002BEFD1FB68002B02D14FF047
:1009F000FD0301E04FF000035BB2184607F1140756
:100A0000BD4680BC704700BF80B485B000AF786041
:100A10004FF00003C4F20C037A681A614FF0000330
:100A2000C4F20C034FF00102DA604FF00003C4F28D
:100A30000C03DB69FB60FB6803F00603002B0FD09F
:100A4000FB6803F00403002B02D04FF0FF0309E022
:100A5000FB6803F00203002B02D04FF0FE0301E01D
:100A60004FF000035BB2184607F11407BD4680BC87
:100A7000704700BF80B400AF4FF00003C4F2010321
:100A80004FF001025A60BD4680BC704780B400AF91
:100A90004FF00003C4F201034FF002025A604FF01E
:100AA0000003C4F201034FF000025A62BD4680BC4D
:100AB000704700BF80B400AF4FF00003C4F20103E1
:100AC0004FF001029A61BD4680BC704780B483B08C
:100AD00000AF0346FB7100BF4FF44043C4F2000374
:100AE0001B6903F04003002BF6D04FF44043C4F2DF
:100AF0000003FA795A6300BF4FF44043C4F2000385
:100B00001B6903F02003002BF6D007F10C07BD464C
:100B100080BC704780B582B000AF78607B681B787E
:100B2000002B09D07B681B787A6802F101027A6099
:100B30001846FFF7CBFFF1E700BF07F10807BD46F6
:100B400080BD00BF80B582B000AF0346FB71FB796A
:100B500083F00103DBB2002B09D000BF4FF4004348
:100B6000C4F208039B6803F00103002BF6D1FB7964
:100B70004FF40040C4F208004FF000011A4600F0A4
:100B800031F807F10807BD4680BD00BF80B400AF53
:100B90004FF40043C4F208031B6803F00103002B69
:100BA0001AD04FF40043C4F208039B6803F0020319
:100BB000002B13D100BF4FF40043C4F208039B681D
:100BC00003F00103002BF6D14FF40043C4F20803F5
:100BD0004FF001025A6002E000BF00E000BFBD46D6
:100BE00080BC704780B487B000AFF860B9607A60AD
:100BF000FB6803F104734FEAC302BB68D3184FEAE2
:100C000083037B617B697A681A6007F11C07BD4624
:100C100080BC704780B586B000AF4FF4F0433B61B5
:100C200047F60103FB6047F60203BB6047F6030388
:100C30007B6040F20023C2F200034FF480421A604E
:100C40004FF00100FFF77EFF00F0CEF8FFF79EFFA8
:100C500000F0FAF84FF000037B6115E000F09EF918
:100C6000FFF794FF00F0BCF90346002B06D000F01C
:100C70003FF9FFF78BFF00F0E7F801E000F00EF915
:100C80007B6903F101037B6140F29C23C2F2000304
:100C90001B881A467B699A42E0DC00F07FF9FFF777
:100CA00075FF00F09DF90346002B38D040F2002379
:100CB000C2F200034FF4F0421A603B691A7840F226
:100CC000A423C2F200031A70FB681A7840F2A4232E
:100CD000C2F200035A70BB681A7840F2A423C2F231
:100CE00000039A707B681A7840F2A423C2F20003D2
:100CF000DA7040F20023C2F200031B681846FFF7C7
:100D00000BFD40F20023C2F200031B68184640F2BC
:100D1000A421C2F200014FF00C02FFF78FFD4FF04B
:100D20000000FFF70FFF07F11807BD4680BD00BFA9
:100D300080B586B000AF4FF480437B6147F6040373
:100D4000FB6047F60603BB604FF001033B714FF0B9
:100D500000037B714FF00003BB714FF00003FB7188
:100D600040F20023C2F2000347F60C021A604FF073
:100D700000037B804FF000033B6111E07B889AB257
:100D80007B691B7810461946FFF700FB03467B8002
:100D90007B6903F101037B613B6903F101033B6163
:100DA000BB681A683B699A42E8D8FB681A887B8856
:100DB0009BB29A4210D140F20023C2F200031B689A
:100DC0001A4607F10403104619464FF00402FFF7D4
:100DD00035FD4FF0010301E04FF00003184607F125
:100DE0001807BD4680BD00BF80B500AF00F0D6F843
:100DF00040F2A423C2F200035B791A4640F29C231E
:100E0000C2F200031A8040F29C23C2F200031B8846
:100E10004FEA03239AB240F29C23C2F200031A80E5
:100E200040F2A423C2F200031B791A4640F29C232D
:100E3000C2F200031B8813439AB240F29C23C2F211
:100E400000031A8080BD00BF80B582B000AF4FF4B0
:100E5000C043C4F200034FF480429A654FF0000390
:100E60007B600DE040F20423C2F200037A689B1815
:100E70001B781846FFF72AFE7B6803F101037B60AD
:100E80007B68042BEEDD4FF4C043C4F200034FF443
:100E90008042DA6507F10807BD4680BD80B582B0A3
:100EA00000AF4FF4C043C4F200034FF480429A6590
:100EB0004FF000037B600DE040F20C23C2F2000310
:100EC0007A689B181B781846FFF700FE7B6803F1D1
:100ED00001037B607B68042BEEDD4FF4C043C4F25A
:100EE00000034FF48042DA6507F10807BD4680BD74
:100EF00080B582B000AF4FF000037B6012E07B68EA
:100F000003F1040240F2A423C2F200039A5C40F20F
:100F1000A423C2F2000379685B181A707B6803F19E
:100F200001037B607B68072BE9DD40F20023C2F2FE
:100F300000031B68B3F5804F0AD040F20023C2F2D1
:100F400000031B684FEAC3534FEAD353002B07D16A
:100F500040F20023C2F200031B681846FFF7DCFBD7
:100F600040F20023C2F200031B68184640F2A4219D
:100F7000C2F200014FF00802FFF760FC40F20023CC
:100F8000C2F200031B6803F1080240F20023C2F220
:100F900000031A6007F10807BD4680BD80B500AFA9
:100FA00040F2A023C2F200034FF000021A8040F288
:100FB000A423C2F200034FF00A029A7001E0FFF787
:100FC00007FA40F2A023C2F200031B881AB240F2D3
:100FD000A423C2F200039B789A42F0D180BD00BFE7
:100FE00080B582B000AF4FF000037B804FF000036C
:100FF0003B804FF000037B6012E07B889AB240F2A6
:10100000A423C2F2000379685B181B7810461946C6
:10101000FFF7BCF903467B807B6803F101037B602B
:1010200040F2A423C2F200039B78A3F102027B6882
:101030009A42E2DC40F2A423C2F200035B7B3B80D5
:101040003B889BB24FEA03239BB23B8040F2A42330
:10105000C2F200031B7B1A463B889BB213439BB230
:101060003B807B889AB23B889BB29A4202D14FF078
:10107000010301E04FF00003184607F10807BD46E1
:1010800080BD00BF074880470749084A084B9B1AA4
:1010900040F30580043BC858D0503FF7FBAF0548EC
:1010A00000470000FD100000D412000000000020E6
:1010B0008002002055010000FEE7FEE7FEE7FEE7A4
:1010C000FEE7FEE7FEE7FEE7FEE7FEE7FEE7FEE7F8
:1010D000FEE7FEE7FEE7FEE7FEE7FEE7FEE7FEE7E8
:1010E000FEE7FEE7FEE7FEE7FEE7FEE7FEE7FEE7D8
:1010F000FEE7FEE7FEE7FEE7FEE700BF80B400AFD5
:10110000BD4680BC704700BF10B5034C14B1AFF3AF
:10111000008010BD204610BD0000000008B5084B3F
:1011200004461BB10021AFF3008001E000F00CF891
:1011300004480068816A01B18847204600F048F8F9
:1011400000000000C412000070B5084B084C0025D8
:10115000E01A841003EB8406043D1CB172599047D9
:10116000013CF9E7BDE8704000F03AB87C0200208D
:101170008002002038B50E4D0E4B0024E81A851071
:10118000AC4205D00B4951F8242090470134F7E7D1
:1011900000F020F80849094A541AA5100024AC426E
:1011A00005D0054B53F8240080470134F7E738BDDC
:1011B0007802002078020020780200207C020020C3
:1011C00082180346934202D003F8011BFAE77047E6
:1011D000FEE700BFF8B500BFF8BC08BC9E467047EC
:1011E000F8B500BFF8BC08BC9E4670475741544351
:1011F00048444F47207472696767657265642120AF
:101200004572726F72206F6E207472616E736D69B9
:10121000740D0A0D0A00000045464D333220414549
:101220005320426F6F746C6F616465720D0A000029
:10123000506C6561736520656E7465722061206312
:101240006F6D6D616E643A200D0A20307830302069
:101250002D2055706C6F6164204669726D776172E4
:10126000650D0A2030783031202D20566572696670
:1012700079204669726D776172650D0A2030783089
:1012800032202D20426F6F74204669726D77617233
:10129000650D0A004669726D776172652056414C92
:1012A0004944210A0D0000004669726D776172653C
:1012B00020494E56414C494421210A0D00000000AE
:0C12C000430000001402002000000000A9
:0812CC0088EEFF7F0100000025
:1012D400000005800F800A001B801E00140011808E
:1012E400338036003C00398028002D80278022007E
:1012F400638066006C00698078007D80778072006E
:10130400500055805F805A004B804E00440041805D
:10131400C380C600CC00C980D800DD80D780D2004D
:10132400F000F580FF80FA00EB80EE00E400E1803D
:10133400A000A580AF80AA00BB80BE00B400B1802D
:10134400938096009C00998088008D80878082001D
:10135400838186018C01898198019D819781920105
:10136400B001B581BF81BA01AB81AE01A401A181F5
:10137400E001E581EF81EA01FB81FE01F401F181E5
:10138400D381D601DC01D981C801CD81C781C201D5
:10139400400145814F814A015B815E0154015181C5
:1013A400738176017C01798168016D8167816201B5
:1013B400238126012C01298138013D8137813201A5
:1013C400100115811F811A010B810E010401018195
:1013D400038306030C03098318031D831783120375
:1013E400300335833F833A032B832E032403218365
:1013F400600365836F836A037B837E037403718355
:10140400538356035C03598348034D834783420344
:10141400C003C583CF83CA03DB83DE03D403D18334
:10142400F383F603FC03F983E803ED83E783E20324
:10143400A383A603AC03A983B803BD83B783B20314
:10144400900395839F839A038B838E038403818304
:10145400800285828F828A029B829E0294029182FC
:10146400B382B602BC02B982A802AD82A782A202EC
:10147400E382E602EC02E982F802FD82F782F202DC
:10148400D002D582DF82DA02CB82CE02C402C182CC
:10149400438246024C02498258025D8257825202BC
:1014A400700275827F827A026B826E0264026182AC
:1014B400200225822F822A023B823E02340231829C
:1014C400138216021C02198208020D82078202028C
:1014D40000400000AAAA050001000000AAAA050015
:1014E40000000000000000000000000000000000F8
:1014F40000000000000000000000000000000000E8
:1015040000000000C0120000000000000000000005
:1015140000000000000000000000000000000000C7
:1015240000000000000000000000000000000000B7
:1015340000000000000000000000000000000000A7
:10154400000000000000000025010000010100006F
:040000030000108564
:00000001FF
