:1000000000100020391000006F1000007110000077
:100010007310000075100000771000006D100000D4
:100020006D1000006D1000006D10000079100000D0
:100030007B1000006D1000007D1000007F1000009C
:1000400081100000831000007107000011070000FC
:10005000891000008B1000008D1000008F10000030
:100060009110000093100000951000009710000000
:10007000991000009B1000009D1000009F100000D0
:10008000A1100000A3100000A5100000A7100000A0
:10009000A9100000AB100000AD100000000000002F
:1000A0000000000000000000000000000000000050
:1000B0000000000000000000000000000000000040
:1000C0000000000000000000000000000000000030
:1000D0000000000000000000000000000000000020
:1000E0000000000000000000000000000000000010
:1000F0000000000000000000000000000000000000
:1001000010B5054C237833B9044810B10448AFF357
:1001100000800121217010BDC804002000000000F3
:100120009C12000008B5064B1BB106480649AFF308
:1001300000800648016811B1054A02B1904708BD28
:10014000000000009C120000CC040020C804002025
:1001500000000000154B002B08BF134B9D46A3F574
:10016000803A00218B460F461348144A121A01F0B8
:1001700001F80F4B002B00D098470E4B002B00D0FE
:1001800098470020002104460D4600200C4900221B
:10019000002300F093FF00F0C7FF2046294600F03F
:1001A00073F800F095FF00BF000008000010002069
:1001B0000000000000000000C80400200A05002024
:1001C000FD10000080B400AFBD4680BC704700BF8A
:1001D00080B500AF4FF4C043C4F200034FF4804237
:1001E0009A654FF42043C4F20C035B6803F01003DC
:1001F000002B05D041F2C010C0F2000000F06AFCF4
:1002000041F2D810C0F2000000F064FC41F2F0109E
:10021000C0F2000000F05EFC4FF4C043C4F20003E3
:100220004FF48042DA654FF4C043C4F20C034FF040
:1002300001025A6280BD00BF80B582B000AF0346A4
:10024000FB714FF4C043C4F200034FF480429A653F
:10025000FB79002B06D041F26820C0F2000000F0CC
:1002600039FC05E041F27C20C0F2000000F032FCD5
:100270004FF4C043C4F200034FF48042DA6507F143
:100280000807BD4680BD00BF80B582B000AF43F611
:1002900007037B60FFF796FF00F028F900F07CF978
:1002A00000F0F6F800F0AAF900F0BCF900F0CEF981
:1002B0007B681B78002B06D100F00CFD0346012B58
:1002C00001D100F097F8FFF783FF00E000BF00F0D6
:1002D00031FE40F2EC43C2F200031B78DBB2AA2BE2
:1002E000F4D140F2EC43C2F200035B78DBB2AA2BFC
:1002F000ECD140F2EC43C2F20003DB78DBB27F2B9F
:10030000E4D140F2EC43C2F200031B79DBB2142BC0
:100310005ED801A252F823F06D0300007F030000B5
:100320008D030000D1030000D1030000D1030000C1
:10033000D1030000D1030000D1030000D10300006D
:10034000D1030000D1030000D1030000D10300005D
:10035000D1030000D1030000D1030000D10300004D
:10036000D1030000D1030000CB03000000F032FCF9
:1003700000F0B0FC03461846FFF75EFF29E000F0EE
:10038000A9FC03461846FFF757FF22E000F0A2FC45
:100390000346002B04D000F0E5FC00F02BF818E039
:1003A0004FF4C043C4F200034FF480429A6541F217
:1003B0007C20C0F2000000F08DFB4FF4C043C4F27B
:1003C00000034FF48042DA6503E000F087FA00E0B2
:1003D00000BF7BE780B483B000AF7860396080F302
:1003E000088880F309888F4607F10C07BD4680BC5A
:1003F000704700BF80B584B000AF4FF48043FB600E
:100400004FF46D43CEF20003FA689A60FB681B68F4
:10041000BB60FB685B687B60B8687968FFF7DAFFF0
:1004200007F11007BD4680BD80B483B000AF02461F
:100430000B46FA807B71FB884FEA03239AB2FB8854
:100440004FEA13239BB219467B79594040F20003CF
:10045000C2F2000333F811309BB253409BB29BB2FF
:10046000184607F10C07BD4680BC704780B400AF4A
:100470004FF46D43CEF200034FF46D42CEF2000212
:10048000126922F004021A6130BFBD4680BC704779
:1004900080B400AF4FF44043C4F200034FF4407205
:1004A0005A614FF44043C4F2000340F60542DA605B
:1004B0004FF44043C4F200034FF44042C4F2000240
:1004C000126842F060021A604FF44043C4F2000325
:1004D00041F6F9729A644FF44043C4F2000340F2CB
:1004E00003325A65BD4680BC704700BF80B400AF80
:1004F0004FF40043C4F20C0340F22C62C0F20C0231
:100500001A604FF40043C4F20C034FF40042C4F2EB
:100510000C02126A42F004021A6200BF4FF4004358
:10052000C4F20C03DB6A03F00803002BF6D04FF48F
:100530000043C4F20C034FF480729A604FF40043FE
:10054000C4F20C034FF002025A624FF40043C4F2AB
:100550000C034FF054025A644FF40043C4F20C03EE
:100560004FF005029A624FF40043C4F20C034FF0BF
:1005700004021A644FF40043C4F20C034FF0B302B8
:100580005A614FF00003C4F20C0341F67132DA6392
:10059000BD4680BC704700BF80B400AF4FF4C0437D
:1005A000C4F200034FF080621A654FF4C043C4F2F6
:1005B00000034FF48042DA654FF4C043C4F20003F5
:1005C0004FF48202C3F898204FF4C043C4F20003F2
:1005D0004FF40052C3F8A0204FF4C043C4F200030C
:1005E0004FF4C042C4F20002D2F8202142F00402CB
:1005F000C3F82021BD4680BC704700BF80B400AF67
:100600004FF40043C4F2080340F60C221A604FF482
:100610000043C4F208034FF000025A60BD4680BC9C
:10062000704700BF80B400AF4FF00003C4F2010375
:100630004FF040021A604FF00003C4F201034FF480
:10064000A072DA61BD4680BC704700BF80B500AFC4
:1006500000F03CF880BD00BF80B483B000AF03461B
:10066000FB714FF46143CEF2000397F907204FEA84
:100670005212F97901F01F014FF0010000FA01F167
:1006800043F8221007F10C07BD4680BC704700BF3D
:1006900080B483B000AF0346FB714FF46143CEF2E8
:1006A000000397F907204FEA5212F97901F01F0170
:1006B0004FF0010000FA01F102F1600243F822104C
:1006C00007F10C07BD4680BC704700BF80B500AF86
:1006D0004FF00300FFF7DCFF4FF00300FFF7BCFF14
:1006E0004FF44043C4F200034FF44042C4F200020E
:1006F000D26C42F00402DA644FF00003C4F201034A
:100700004FF00102DA604FF00200FFF7A5FF80BD55
:1007100080B500AF00F09AF900F08CF940F2E843A0
:10072000C2F200031A8811B24FF44043C4F200032E
:10073000DB69D8B240F2EC43C2F2000358541346CE
:1007400003F101039AB240F2E843C2F200031A80B7
:1007500040F2E843C2F200031B881AB240F2EC43B5
:10076000C2F200039B789A4201D100F06FF980BD7C
:1007700080B500AF00F07EF900F068F940F2E84380
:10078000C2F200034FF000021A8040F2EC43C2F2C2
:1007900000034FF00A029A7080BD00BF80B485B09C
:1007A00000AF7860396049F28063C0F29803FB6063
:1007B00049F28063C0F29803FB6003E0FB6803F139
:1007C000FF33FB604FF00003C4F20C03DB6903F05E
:1007D0000803002B02D1FB68002BEFD1FB68002B34
:1007E00002D14FF0FD033BE04FF00003BB600EE091
:1007F0004FF00003C4F20C037A6812689A61BB6878
:1008000003F10103BB607B6803F104037B60BA68FA
:100810003B689A42ECDB4FF00003C4F20C034FF04C
:100820000802DA6049F28063C0F29803FB6003E0DB
:10083000FB6803F1FF33FB604FF00003C4F20C03CD
:10084000DB6903F00103002B02D0FB68002BEFD122
:10085000FB68002B02D14FF0FD0301E04FF00003D5
:100860005BB2184607F11407BD4680BC704700BF55
:1008700080B485B000AF78604FF00003C4F20C0381
:100880007A681A614FF00003C4F20C034FF00102C2
:10089000DA604FF00003C4F20C03DB69FB60FB6815
:1008A00003F00603002B0FD0FB6803F00403002BBA
:1008B00002D04FF0FF0309E0FB6803F00203002BB6
:1008C00002D04FF0FE0301E04FF000035BB2184688
:1008D00007F11407BD4680BC704700BF80B584B0E7
:1008E00000AF4FF000037B814FF0AA033B704FF045
:1008F000AA037B704FF00703BB704FF00003FB703F
:100900004FF07F033B714FF4C043C4F200034FF438
:1009100080429A654FF00003FB6016E07B899AB233
:100920003946FB68CB181B7810461946FFF77CFD4B
:1009300003467B813A46FB68D3181B78184600F0C3
:10094000A5F8FB6803F10103FB60FB68042BE5DD00
:100950007B899BB2DBB27B717B899BB24FEA13230D
:100960009BB2DBB2BB717B79184600F08FF8BB7984
:10097000184600F08BF84FF4C043C4F200034FF464
:100980008042DA6507F11007BD4680BD80B582B0B0
:1009900000AF4FF4C043C4F200034FF480429A65A5
:1009A0004FF000037B600DE040F20023C2F2000331
:1009B0007A689B181B78184600F068F87B6803F18A
:1009C00001037B607B68042BEEDD4FF4C043C4F26F
:1009D00000034FF48042DA6507F10807BD4680BD89
:1009E00080B582B000AF4FF4C043C4F200034FF4AF
:1009F00080429A654FF000037B600DE040F20823CF
:100A0000C2F200037A689B181B78184600F03EF883
:100A10007B6803F101037B607B68042BEEDD4FF400
:100A2000C043C4F200034FF48042DA6507F10807BF
:100A3000BD4680BD80B400AF4FF00003C4F2010397
:100A40004FF001025A60BD4680BC704780B400AFD1
:100A50004FF00003C4F201034FF002025A604FF05E
:100A60000003C4F201034FF000025A62BD4680BC8D
:100A7000704700BF80B400AF4FF00003C4F2010321
:100A80004FF001029A61BD4680BC704780B483B0CC
:100A900000AF0346FB7100BF4FF44043C4F20003B4
:100AA0001B6903F04003002BF6D04FF44043C4F21F
:100AB0000003FA795A6300BF4FF44043C4F20003C5
:100AC0001B6903F02003002BF6D007F10C07BD468D
:100AD00080BC704780B582B000AF78607B681B78BF
:100AE000002B09D07B681B787A6802F101027A60DA
:100AF0001846FFF7CBFFF1E700BF07F10807BD4637
:100B000080BD00BF80B582B000AF0346FB71FB79AA
:100B100083F00103DBB2002B09D000BF4FF4004388
:100B2000C4F208039B6803F00103002BF6D1FB79A4
:100B30004FF40040C4F208004FF000011A4600F0E4
:100B400031F807F10807BD4680BD00BF80B400AF93
:100B50004FF40043C4F208031B6803F00103002BA9
:100B60001AD04FF40043C4F208039B6803F0020359
:100B7000002B13D100BF4FF40043C4F208039B685D
:100B800003F00103002BF6D14FF40043C4F2080335
:100B90004FF001025A6002E000BF00E000BFBD4616
:100BA00080BC704780B487B000AFF860B9607A60ED
:100BB000FB6803F104734FEAC302BB68D3184FEA22
:100BC00083037B617B697A681A6007F11C07BD4665
:100BD00080BC704780B582B000AF40F21023C2F2F3
:100BE00000034FF480421A604FF00100FFF78AFFC4
:100BF00000F01AF9FFF7AAFFFFF7C8FE4FF0000355
:100C00007B6015E000F096F9FFF7A0FF00F0B4F963
:100C10000346002B06D000F037F9FFF797FFFFF7E8
:100C2000B5FE01E0FFF7DCFE7B6803F101037B60AA
:100C300040F2E443C2F200031B881A467B689A42E2
:100C4000E0DC00F077F9FFF781FF00F095F903464B
:100C5000002B36D040F21023C2F200034FF4605252
:100C60001A604FF000033B6012E03B6803F104029E
:100C700040F2EC43C2F200039A5C40F2EC43C2F251
:100C8000000339685B181A703B6803F101033B608D
:100C90003B680F2BE9DD40F21023C2F200031B6812
:100CA000184600F085FA40F21023C2F200031B68D8
:100CB000184640F2EC41C2F200014FF0100200F081
:100CC0006FFA4FF00000FFF71DFF07F10807BD4660
:100CD00080BD00BF80B584B000AF4FF48043FB609F
:100CE0004FF00003FB8040F21823C2F200031B68A0
:100CF0001B68B3F5004F02D94FF000032DE04FF011
:100D00000003BB6011E0FB889AB2FB681B781046B9
:100D10001946FFF789FB0346FB80FB6803F10103DB
:100D2000FB60BB6803F10103BB6040F21823C2F211
:100D300000031B681A68BB689A42E4D840F2142387
:100D4000C2F200031B681A88FB889BB29A4202D148
:100D50004FF0010301E04FF00003184607F11007C0
:100D6000BD4680BD80B582B000AF40F21023C2F214
:100D700000034FF460521A6040F21423C2F20003E1
:100D80001B681B88DBB23B7040F21423C2F20003E5
:100D90001B681B884FEA13239BB2DBB27B7040F2C7
:100DA0001823C2F200031B681B68DBB2BB7040F261
:100DB0001823C2F200031B681B684FEA1323DBB23F
:100DC000FB7040F21823C2F200031B681B684FEA55
:100DD0001343DBB23B7140F21823C2F200031B68DD
:100DE0001B684FEA1363DBB27B714FF00103BB71E9
:100DF0004FF00003FB7140F21023C2F200031B68A6
:100E0000184600F0D5F940F21023C2F200031B6827
:100E10001A463B46104619464FF0080200F0C0F94A
:100E200007F10807BD4680BD80B500AF00F082F82D
:100E300040F2EC43C2F200035B791A4640F2E4430D
:100E4000C2F200031A8040F2E443C2F200031B889E
:100E50004FEA03239AB240F2E443C2F200031A803D
:100E600040F2EC43C2F200031B791A4640F2E4431D
:100E7000C2F200031B8813439AB240F2E443C2F269
:100E800000031A8080BD00BF80B582B000AF4FF074
:100E900000037B6012E07B6803F1040240F2EC4344
:100EA000C2F200039A5C40F2EC43C2F2000379689C
:100EB0005B181A707B6803F101037B607B680F2B62
:100EC000E9DD40F21023C2F200031B68B3F5804F46
:100ED0000AD040F21023C2F200031B684FEAC3534A
:100EE0004FEAD353002B07D140F21023C2F2000384
:100EF0001B68184600F05CF940F21023C2F20003B0
:100F00001B68184640F2EC41C2F200014FF010029B
:100F100000F046F940F21023C2F200031B6803F10F
:100F2000100240F21023C2F200031A6007F1080712
:100F3000BD4680BD80B500AF40F2E843C2F2000379
:100F40004FF000021A8040F2EC43C2F200034FF06F
:100F50000A029A7001E0FFF789FA40F2E843C2F210
:100F600000031B881AB240F2EC43C2F200039B78E4
:100F70009A42F0D180BD00BF80B582B000AF4FF083
:100F800000037B804FF000033B804FF000037B6049
:100F900012E07B889AB240F2EC43C2F20003796817
:100FA0005B181B7810461946FFF73EFA03467B8014
:100FB0007B6803F101037B6040F2EC43C2F2000363
:100FC0009B78A3F102027B689A42E2DC40F2EC4398
:100FD000C2F200039B7803F1FF3240F2EC43C2F20D
:100FE00000039B5C3B803B889BB24FEA03239BB290
:100FF0003B8040F2EC43C2F200039B78A3F1020273
:1010000040F2EC43C2F200039B5C1A463B889BB261
:1010100013439BB23B807B889AB23B889BB29A4237
:1010200002D14FF0010301E04FF00003184607F131
:101030000807BD4680BD00BF074880470749084AEA
:10104000084B9B1A40F30580043BC858D0503FF72B
:10105000FBAF054800470000B1100000A8120000D7
:1010600000000020C804002055010000FEE7FEE754
:10107000FEE7FEE7FEE7FEE7FEE7FEE7FEE7FEE748
:10108000FEE7FEE7FEE7FEE7FEE7FEE7FEE7FEE738
:10109000FEE7FEE7FEE7FEE7FEE7FEE7FEE7FEE728
:1010A000FEE7FEE7FEE7FEE7FEE7FEE7FEE700BF3E
:1010B00080B400AFBD4680BC704700BF10B5034C84
:1010C00014B1AFF3008010BD204610BD0000000039
:1010D00008B5084B04461BB10021AFF3008001E0C6
:1010E00000F00CF804480068816A01B18847204686
:1010F00000F048F8000000009812000070B5084B9E
:10110000084C0025E01A841003EB8406043D1CB152
:1011100072599047013CF9E7BDE8704000F03AB8D9
:10112000C4040020C804002038B50E4D0E4B002426
:10113000E81A8510AC4205D00B4951F8242090479D
:101140000134F7E700F020F80849094A541AA510BD
:101150000024AC4205D0054B53F8240080470134ED
:10116000F7E738BDC0040020C0040020C004002000
:10117000C404002082180346934202D003F8011BE6
:10118000FAE77047FEE700BFF8B500BFF8BC08BC3F
:101190009E467047F8B500BFF8BC08BC9E46704735
:1011A00001B40248844601BC604700BFA50300208B
:1011B00001B40248844601BC604700BF81020020A0
:1011C0005741544348444F472074726967676572BA
:1011D0006564210D0A0D0A005349524B4120426FAC
:1011E0006F746C6F6164657220312E300D0A0000DF
:1011F000506C6561736520656E7465722061206353
:101200006F6D6D616E643A200D0A203078303020A9
:101210002D2055706C6F6164204669726D77617224
:10122000650D0A2030783031202D205665726966B0
:1012300079204669726D776172650D0A20307830C9
:1012400032202D20426F6F74204669726D77617273
:10125000650D0A2030783134202D2053656E6420CE
:1012600048656C6C6F0D0A004669726D7761726536
:101270002056414C4944210A0D0000004669726D18
:101280007761726520494E56414C494421210A0D2F
:1012900000000000430000001C02002000000000CD
:0812A000B4EEFF7F0100000025
:1012A800000005800F800A001B801E0014001180BA
:1012B800338036003C00398028002D8027802200AA
:1012C800638066006C00698078007D80778072009A
:1012D800500055805F805A004B804E00440041808A
:1012E800C380C600CC00C980D800DD80D780D2007A
:1012F800F000F580FF80FA00EB80EE00E400E1806A
:10130800A000A580AF80AA00BB80BE00B400B18059
:10131800938096009C00998088008D808780820049
:10132800838186018C01898198019D819781920131
:10133800B001B581BF81BA01AB81AE01A401A18121
:10134800E001E581EF81EA01FB81FE01F401F18111
:10135800D381D601DC01D981C801CD81C781C20101
:10136800400145814F814A015B815E0154015181F1
:10137800738176017C01798168016D8167816201E1
:10138800238126012C01298138013D8137813201D1
:10139800100115811F811A010B810E0104010181C1
:1013A800038306030C03098318031D8317831203A1
:1013B800300335833F833A032B832E032403218391
:1013C800600365836F836A037B837E037403718381
:1013D800538356035C03598348034D834783420371
:1013E800C003C583CF83CA03DB83DE03D403D18361
:1013F800F383F603FC03F983E803ED83E783E20351
:10140800A383A603AC03A983B803BD83B783B20340
:10141800900395839F839A038B838E038403818330
:10142800800285828F828A029B829E029402918228
:10143800B382B602BC02B982A802AD82A782A20218
:10144800E382E602EC02E982F802FD82F782F20208
:10145800D002D582DF82DA02CB82CE02C402C182F8
:10146800438246024C02498258025D8257825202E8
:10147800700275827F827A026B826E0264026182D8
:10148800200225822F822A023B823E0234023182C8
:10149800138216021C02198208020D8207820202B8
:1014A800AAAA050001000000AAAA05000000000081
:1014B8000040000000380000023800000000000072
:1014C8000000000000000000000000000000000014
:1014D800000000000000000000000000941200005E
:1014E80000000000000000000000000000000000F4
:1014F80000000000000000000000000000000000E4
:1015080000000000000000000000000000000000D3
:1015180000000000000000000000000000000000C3
:1015280080B485B000AF786049F28063C0F2980358
:10153800FB604FF00003C4F20C034FF00002C4F24A
:101548000C02926842F001029A604FF00003C4F264
:101558000C037A681A614FF00003C4F20C034FF0D1
:101568000102DA604FF00003C4F20C03DB6903F0F8
:101578000403002B0ED04FF00003C4F20C034FF00D
:101588000002C4F20C02926822F001029A604FF045
:10159800FF034FE04FF00003C4F20C03DB6903F0D4
:1015A8000203002B0ED04FF00003C4F20C034FF0DF
:1015B8000002C4F20C02926822F001029A604FF015
:1015C800FE0337E04FF00003C4F20C034FF00202B1
:1015D800DA6003E0FB6803F1FF33FB604FF00003C0
:1015E800C4F20C03DB6903F00103002B02D0FB6893
:1015F800002BEFD1FB68002B0ED14FF00003C4F293
:101608000C034FF00002C4F20C02926822F00102AF
:101618009A604FF0FD030DE04FF00003C4F20C0395
:101628004FF00002C4F20C02926822F001029A60A4
:101638004FF000035BB2184607F11407BD4680BCA3
:10164800704700BF80B58AB000AFF860B9607A60B3
:101658004FF00003FB764FF00003C4F20C034FF089
:101668000002C4F20C02926842F001029A607B68A0
:101678004FEAA3037B61BB68FB614FF000037B6209
:1016880040E07B6A4FEA8303FA68D318184600F0F3
:101698005FF80346FB7697F91B30002B37D17B6A3E
:1016A8004FEA8303FA68D3184FEAC3534FEAD35378
:1016B800C3F500734FEA93033B627A697B6AD21AD7
:1016C8003B6A9A4203DA7A697B6AD31A3B627A6A7E
:1016D8003B6AD3187B6212E0F8694FF0010100F011
:1016E8002FF80346FB7697F91B30002B11D1FB69C5
:1016F80003F10403FB613B6A03F1FF333B623B6A7E
:10170800002BE9D17A6A7B699A42BADB02E000BF12
:1017180000E000BF4FF00003C4F20C034FF00002DA
:10172800C4F20C02926822F001029A60FB7E5BB25E
:10173800184607F12807BD4680BD00BF000000001D
:1017480001B40248844601BC604700BF9D07000001
:1017580001B40248844601BC604700BF710800001C
:08176800250100000101000051
:0400000300001039B0
:00000001FF
